:20F000002DE9F0410F460446ADF1200D0DF0A0FB674D2068286060686860A068A860654896
:20F02000804765492868086068684860A86888606248C860183008616148804761492868C6
:20F04000086068684860A86888605F48C8609C30086107B3387B8DF81A007E7B8DF81B60CF
:20F060000DF11A000AF0CDFC386908B157490160786908B15649016056483978017079780F
:20F080004170B9788170F978C1707E684660BC688460BB69C360504C50495020A21C04F1C8
:20F0A0000C030DF087FE40B108200C27ADF814002968ADF8167005A88847686880470026C5
:20F0C000484B666001275E8080461F704448066012200EF013F8FF21122260620EF010FA31
:20F0E00004F12800FF2108220EF00AFA12200EF005F83D4908600868122231460EF000FA79
:20F10000304602F0EFF838460CF0C0FF374801880827FF2906D1022101807822001D31465F
:20F120000EF0EEF9032009F08DFB04200CF005F805200CF0F5FD06200BF057FD072001F089
:20F14000BDF82B48314606AA04AB077010200DF031FE616A9DF8180008729DF81800487483
:20F16000384609319DF81820401E01F8012BF9D10EF054F820612968ADF800701420ADF873
:20F180000200684688471526ADF808700198ADF80A602968606102A888470398A968801EDB
:20F1A000A061404688470CF00BF908B0BDE8F08148480020014C01102C4F002000DF0100A2
:20F1C00001500010E84800209CD801007DD00100E3D30100E446002018460020B9D10100B1
:14F1E0007048002028470020A8480020604400204047002039
:20F1F4002DE9F843099D002600274FF6FF7835F8174044451CBF761CF6B27F1C062FF6DB38
:20F2140000270DE00CF1010C5FFA8CFCE646B64505DA35F8179035F81EE0F145F2D1E7B244
:20F23400B74208DA35F81740444504D0A14202D37C1CA446E8E7B7420DD176B1884202D05B
:20F254004BB1994207D3089811460EF019FB47F6FF71884201DB012000E00020BDE8F28352
:20F274002DE9F843DFF88C0CDFF88C9C017899F80000884200F0868000204FF4907301E0AA
:20F29400401CC0B288427DDAD9F8042003FB002808F104063278002AF2D1DFF8601C0968F2
:20F2B400B0700122327001EB8011002208F16104727001206071E072B280F280307388F86B
:20F2D400392008F18E007261327672830270E277002301F12602FF25937508F1E80780230B
:20F2F400E37400236375A37615707B76BB76FB763B77FB833B8488F80B31037108F1E3007C
:20F314000370437008F587703B607B60BB723B733B727B73038043808380C38047F230508E
:20F3340008600B714B718D7193729373D373137453749374D374FF22042108F177000DF07B
:20F3540049F925706570A570E5701F2020710020DFF87C1C421800EB0803527883F8F92076
:20F37400401C0828F6DB0020387499F80000401C89F80000C0B2012804BFB07889F80200D9
:20F39400404600E00020BDE8F28310B5DFF8404C0821601C0DF01DF9607840F01F006070E2
:20F3B40010BD70B5044609200EF066FAE8B100F0A9F800F03CF806F8010B04F1F901DFF858
:20F3D400140C0078082818BF0E2030700822701C0EF015F894F8920008B100F01DFF07F011
:20F3F40059FA00F042F89847012070BD70B5044609200EF041FAC8B100F084F800F017F89A
:20F4140030700822092006F8010F04F1F901701C0DF0F5FF94F8920008B100F0FDFE07F0B2
:20F4340039FA00F022F8984700F03FF870BD0A30C0B2E880002105F1080629602971697112
:20F454000320704738B5044601200EF015FA58B100F02FF8122000F023F807F01BFA00F000
:20F4740004F8984700F021F832BDDFF8443D1B69DB6C0246A06E2946704738B504460120AE
:20F494000EF0FAF958B100F014F8132000F008F807F000FAFFF7E9FF984700F006F832BDB4
:20F4B40003F8010F20460EF0E3B90020E08301207047A0F10905002028602871687105F123
:20F4D40008030620E8800122032018700321704770B5044618200EF0CFF9002811D000F070
:20F4F40011F800F061F80F2000F035F810B1182200F094FE07F0CEF900F025F89847FFF73D
:20F51400D4FF70BDA0F1090594F8920000B10420704770B5044618200EF0AEF9002811D039
:20F53400FFF7F0FF00F040F8102000F014F810B1182200F073FE07F0ADF900F004F89847BA
:20F55400FFF7B3FF70BDDFF8EC3C1B69DB6C024630682946704703F8010F308C5870308CA7
:20F57400000A9870308CD870308C000A1871708C5871708C000A9871B08CD871B08C5972B2
:20F59400000A18729972FF20187358739873D873187458749874D874187558759875D87589
:20F5B400D97294F8920070471930C0B2E880002105F108032960297169710320187004F135
:20F5D4006806704770B5044603200EF055F998B3A51DDFF828192A780968A0F1090694F8B0
:20F5F400920001EB821100B10420001DC0B2F080002206F10803326032717271032018702B
:20F61400112003F8010F01F12400017859704078987094F8920010B1032200F0FFFD07F09B
:20F6340039F9DFF8103C1B69DB6C0246A06E3146984700202883012070BDF8B505460E4685
:20F65400DFF8F44BDFF8687B08E0007A03281CBF481C20703969A86E496D88473969A86E75
:20F67400096E8847217810B10279032AEDD0DFF8CC0B00781C2814DA99B1DFF8C40B0078B1
:20F69400814205D2012E0CD1DFF8B80B007840B1A879ADF80000ADF8021000F076F80020B2
:20F6B4002070F1BD2DE9F8430446DFF85008A1790068DFF8FC7A00EB811600F0EAFB804642
:20F6D400002007F059F9B079DFF86C6B0DF0A2F9A06E00B306E0007A00F051F83969A06E34
:20F6F400496D88473969A06E096E88470028F2D13969A06E496E8847054606E0287A00F097
:20F714003EF828460DF002FA2D68002DF6D13969A06E096D8847206FA0B13969096E8847F2
:20F734000546A946D9F8080020B10DF0EFF90020C9F80800D9F80090A945F3D13969206FBF
:20F75400096D8847DFF8F40A00781C2808DA307840B1A179ADF80010ADF8020000F015F8D1
:20F774000020307020460EF07FF820460EF078F8DFF8D41A096840468847BDE8F183032837
:20F7940002D03078401C307070470DF1020200A901200AF0F1B970B5044600F07AFB04F1EF
:20F7B4007601FF234A79521E4A71D2B20AB94B7008E0002215197735521C6E782E70032AA9
:20F7D400F8DB0B7100220A70BDE87040DFF8781A0968084738B50446DFF8700A00680D4669
:20F7F4008047002204F176010A704D704A790AB901224A71BDE83440E8E72DE9F047054685
:20F814000C464FF49078DFF848AA0027012624E006EB0509DAF80400715D19F8012C08FB38
:20F83400010108FB02000968006849684068896880680EF011F801280ED119F8010C715DA7
:20F85400484009F8010C3746715D4840705519F8011C484009F8010C761CA642D8DBFCB2C7
:20F87400002CD2D1BDE8F0872DE9FE4F0446DFF88C0600688946A17900EB811A2068476865
:20F89400B86849460DF0E8FF002840F0CE802068016948460DF0DCFF04F1800680463078DA
:20F8B400002804F12E0540F6C41B68D0218970880DF0E6FF02903078029902280CBFBAF897
:20F8D4002A00A888484301900BFB00F00090206800990069091848460DF0BEFF00284ED0DF
:20F8F40000983289A8EB00010BFB02F3B1FBF3F003FB101101B1401C02FB00F12289029B20
:20F914009A1880186081F2880198101801EB00093078012844D104F1840120460DF094FF22
:20F934007089E189608400202077E08360890818A081A9883089884202BFB1892A899142F3
:20F9540002BF7189EA88914208D0B1890909009142087389A17900200AF096F8A888AAF804
:20F974002A00307928703089A8807089E880B089288120460DF064FF0220307010E0A8883C
:20F994000BFB00F1B8FBF1F290B201FB128109B1401C80B2218941186181A98801FB00F9A2
:20F9B400206801690BFB0911B9600278802A06D1C160A9883A69091F0BFB01F151610178CD
:20F9D40040292BD1618A01FB09F14FF4C872B1FBF2F1491CC4F818906161BA68511AB96090
:20F9F4006269DAF82C1001EB42013A695161DFF8641832780968022A07D1A2792E7801EB77
:20FA1400421253690BFB06335361A279DFF8483801EB4211AA880BFB0232CA61B968816085
:20FA3400E87AA872204600F01DFB6189A0890DF027FFAAF82800E18981423CBF0120AAF8DD
:20FA54002800BDE8F78F2DE9FE4F0DF0F5FE4FF0000900F6C4140026DFF80058DFF898749E
:20FA7400DFF890844FF4907A11E078680AFB0600417951B12A68817909F8021009F1010107
:20FA94005FFA81F92146FFF7EFFE761CF6B298F800008642E9DB787881451CBF822000F0BC
:20FAB400C1FB7878012812D1002601E0761CF6B298F80000864207DA78680AFB060041795B
:20FAD4000029F3D08079A0E0822000F0ABFB79782868FFF792FE29687B680A780AFB02323F
:20FAF400002012685468A668012202E0521C6046D2B24A4500F1010C07DA545C0AFB043496
:20FB140024686468A468A642F0D0C0B200281ABF5FFA8CF000280B78DFF8E08312D00B7833
:20FB340001220DE0565CD8F800E00EEB86140EEB831E248DBEF828E0744538BF3346521C0C
:20FB54008242EFDBDFF8184723704FF6FF7000F05EF801900026786821780AFB010040F6D4
:20FB7400C41100684068029001984008484300901AE0786821780AFB010001680A78802AF0
:20FB940003D1DBF81030009A5A610978402909D1DFF8C0168079096801EB4010009901F56F
:20FBB400A061C161761CF6B24E452DDA28682178305C8142F6D07A68D8F8001001EB8011BD
:20FBD4000AFB00F08318DB89098D4FEA530C8C4502D2591A8945E5DA8058D0F804B0029A5A
:20FBF4000198DBF80810926800EBD070401040F6C413A1F6C41103FB00200DF02DFE002811
:20FC1400B7D02868305C20702078BDE8FE8FF0B54FF6FF710C460023B74A03E0A64298BFE1
:20FC340034465B1CB34D2D78DBB2AB4216D255684FF4907606FB03556E79002EF1D005F18D
:20FC540080068C42377804D1002F0CBF6C8E3489E7E7002F14BF36896E8EDFE7A04288BF8D
:20FC74002046F0BD2DE9F84304468846164600270FE02A4641460DF0C2FB3846471CC3B27B
:20FC940003B101232A46494620460DF0D1FDA844761BB6B276B11C2EACBF1B25F5B2284632
:20FCB4000DF0C2FD5FEA0009E3D181200DF0B8FD072000E00020BDE8F2832DE9F04D8E4FAA
:20FCD400DFF8A065DFF8A0A50C46154679684FF4907282B002FB0018307801289B4602D07A
:20FCF400022830D068E0B068BBF1020F04D100F070F80020B06029E07388B188EA1891423A
:20FD140005DA00F066F80020B0608B2052E02A46214618180DF073FB70882818708080B2C9
:20FD3400B288904248D198F87400802817BF81287F209AF80010401A00F043F80020B08049
:20FD54007080022033E0BBF1020F35D1042DB8BF8C202FDB21786078091D41EA0020DFF890
:20FD7400DC14B08080B20978814238BF8A2021D3A84238BF8B201DD30DF04EFDB060C0B1FF
:20FD94002A4621460DF03BFBB28895420BD198F87400802817BF81287F209AF80010401A92
:20FDB40000F00FF808E07088281870800120307002E081200DF034FD2046BDE8F64D0CF06C
:20FDD400A5BE40B200905B46B168B878D2B20CF0A7B90021B1807180022131700CF096BE09
:20FDF4002DE9F84304462068007840284FD1E08B00284CD0DFF874040078012847D106F01F
:20FE140039FC00F046F805460DF016FD618E40F6C418891C08FB0109DFF834242068A1798C
:20FE34009278476891422CD1B86849460DF014FD48B30DF0EDFC064640F202400DF0E4FCEA
:20FE5400304606F099FD316948460DF001FD618E08FB01F2B0FBF2F0228980B2821862819D
:20FE740048432268126908FB0020B86004F1380041780170204600F0F5F830460BF0AEFEEC
:20FE940001E00069B8602846BDE8F4439EE4BDE8F183DFF8B8030068004770B50446A0793E
:20FEB4000DF0AEFC20BB1548A179006800EB8115FFF7EFFF06466879012803D1A07909F02C
:20FED400CAFE07E0287928B901202871122120460DF092FC687980F001006871AB1D28687C
:20FEF40042082146DFF888030DF0F3FA30466BE470BD0000BC4C0020B04C00201048002043
:20FF140030B587B040F60200ADF800000020ADF8020001900290ADF80C0001208DF80D0086
:20FF34000020ADF80E00D34CD34D2088D34A1278ADF8100002EB4202E86A81680968511851
:20FF5400B1F80110ADF81210994940680969059000A8C9698847012807BFBDF80200B0F587
:20FF7400806F892000F05EF9E868C54A41881278114321800078BC49800643BFC148006871
:20FF9400400A0020087007B030BD10B582B004461020ADF8000004EB4401B748C06A80686C
:20FFB400006808188249B0F801000969ADF8020000A889698847B148047013BDAE48AF4984
:20FFD400C06A80680978006801EB410108567047D04E0020B84C002030B50A7902F01F02F2
:0CFFF4000A71002280F83A200023545CBF
:020000040001F9
:2000000024FA03F5EC070BD590F83A502D1803EBC20485F83C4090F83A40641C80F83A407F
:200020005B1C082BEBDB521C052AE7DB30BD10B500F138025378D47801FB0431252391FBF8
:20004000F3F3252404FB131111700023117800E05B1C9478DBB2A34206D21C1894F83C4038
:20006000A142F5D1084610BD91FBF4F204FB1211081890F83C0010BD70B5044604F13800DB
:2000800004F18E0601784170608921890DF002FC05463078012801BF70882189491C884272
:2000A00006D104F161012046FFF7A0FF0020307029462046FFF7BBFF21684968887370BD70
:2000C0002DE9F44F674E8046707800280D4658D0B8F1800F55D17148817C012914BF042983
:2000E000012707D000294CD1007D022818BF032847D100270024DFF8A891DFF8A8A1DFF8A8
:20010000A8B11DE09DF800108A4202BF01792A78914213D141796A78914202BF8179AA7838
:2001200091420BD1C179EA78914202BF017A2A79914202BF407A6979884220D0641CE4B2C2
:200140009BF8000084421CDADAF8000000EB841170684FF4907202FB04004279002AEDD03E
:20016000006800784045E9D101F13000002F0278C8D1343148460DF045FB1028DEDA0120BB
:2001800000E00020BDE8F28F38B500F1F103474C1D7A6D070AD5434B85791B6803EB851355
:2001A00003F8241F5A70FFF717FA02E01A700DF025FB30B92078BDE834404FF480410BF00E
:2001C0000FBF31BD2C4F002070B5044602200DF05DFB50B3FFF7A0F9C01CC0B2E880002179
:2001E00005F1080329602971697103201870022003F8010F94F80C01587094F8920010B1E9
:20020000022200F015F806F04FFB0F4B1B69DB6C04F16806024630682946984704F10E00C4
:20022000002101820088F082012070BD33460922032120460DF026BB80B50DF0FBFA1C493A
:200240000020087001BD00002C4F0020BA4C002004480020874C0020884C0020504800207C
:200260004C480020B04C002084480020F0DDFFFF14480020BB48002000470020C04C0020C5
:20028000BB4C0020AFFE0000944C00205CE00100B94C00200548002080130050EC49002083
:2002A0008C4A002010480020BC4C0020844C0020B84C0020DFF8741C0870704770B5DFF802
:2002C000704CDFF8705C20702878C0000CF016FF606048B3287880000CF010FF0100A160D6
:2002E00004D16068BDE870400CF0F8BF4FF6FF7630460CF07BFD6168002006E021F830603D
:2003000001EBC00300225A60401C2A789042F5DB052000F0AEF8207802F0CDFFBDE870404C
:20032000DFF8140C0AF0E2BD70BD38B50C46200418D5DFF8FC0B00780CF088F805000ED0FB
:200340002878B02808D1284600F00BF920B1297905F108000AF09AFD28460CF0DFFF84F428
:20036000004032BD002032BD7CB504001D460CD0ADF800108DF80220019400A802F02FFF12
:20038000060019D1C5B164890CB9022614E00C200CF0B4FE08B913260EE0002101608480E1
:2003A0008560DFF8981B0A6812B9086004E00A4611680029FBD11060304676BD30B50D4636
:2003C000DFF8781B0446086883B0002201E00246006890B18388A342F9D10368002A0CBFB8
:2003E0000B6013600CF07AFF00A9204602F043FF10B90DB1019929603EBD01203EBD70B581
:2004000058BB012927D1DFF8280B416800230C2601E05B1CDBB2DFF81C4B2478A34216DA0B
:2004200031F833404FF6FF75AC42F2D0002400E0641C4578E4B2AC42EBD201EBC3056D68AC
:2004400006FB04552D88002DF2D0012070BDBDE8704010780DE0182070BD022070BD0022B0
:20046000002803BFDFF8C80A407808700222104670472DE9F843DFF8B87A044600207870DC
:200480000C257868DFF8AC6A406805FB04F868B10CF024FF0020002204E0796801EBC001CE
:2004A000401C4A60C0B231788842F6D3307808FB00F080B20CF022FE5FEA000927D03078AE
:2004C00008FB00F2002148460DF01AF800200FE0516805FB0CF34FF0000E23F801E05918E8
:2004E0000CF1010CC1F808E0A445F1DBC144401C3178C0B2884207D2796801EBC0024FF0AF
:20050000000CC2F80490EFE77C70002000E01320BDE8F28301460020C90706D50FF20C0350
:20052000DFF81C0D102204211EE77047000000004D0F01000000000001460020C90704D53B
:20054000DFF8FC0C4089002138E77047DFF8EC19096821B18A888242FAD188687047002075
:2005600070472DE9F04387B004460020ADF8100001208DF81200DFF8205DE86938B909F0DE
:200580003DFA0CF0BBFD0028E86100F0E6801822002128460CF0B4FF2079022800F1010874
:2005A00004F108074FF6FF7917D006282CD008282FD00A2832D00C2855D00E2800F088807F
:2005C000102800F08A80122800F08C80162800F09080182800F09680BCE009F00FFA2880E9
:2005E000294660880BF0F0F800283988288804D0814228BF014629809FE0814228BF01464A
:2006000060880AF0B1FBA5E004A9204600F0AFF87CE004A9204600F031F977E000F0A2F8B3
:20062000060050D0608805AB4A460B210AF0F2FB03006B6023D02079BDF8162003900095EC
:200640003146BDF8140000F0A3F900F028FA060004D1608829460BF001F929E0162E686878
:2006600008BF00262BE000F07DF806002BD0608805AB4A460D210AF0CDFB686020B93888A3
:20068000ADF81000112645E02179BDF8162003910346BDF8141002917988019100953146DC
:2006A00000F0FDF9060006D1608829460BF0E4F8002842D12BE0162E686808BF00260CF006
:2006C0002FFA0EB923E001263888ADF810001EE004A9204600F060F918E004A9204600F036
:2006E000E5F913E00DF1120204A9204600F080FA0CE004A9204600F0C1FA060007D18DF88D
:20070000120027E004A9204600F01AFB064696B1162E12D0607814280DD02079287029465E
:20072000BDF8100068802E7160880BF044F810B14FF0010801E0162E0CD160882B465FFA91
:2007400088F216210AF006FB20B15FFA88F128460AF09CFB20460AF034FA9DF8120007B05F
:20076000BDE8F08338880DF1160102F053BE2DE9FA4786B0044604F1080500F034FA0590FD
:200780006A1D0DF1120000902B796988288802F013FE002780464FF0FF0AB8F1000F5BD0D2
:2007A00009E0BDF810300B54BDF81000716892B2000A5054571C0598BFB2401F87424BDA9E
:2007C0002079BDF8122003904FF000090598CDF80490C01F80B20290414600F05CF9002831
:2007E00002BF328B2889904214D1F169E8680CF085FD78B1706858B900F048F907210AF086
:2008000009FB706020B9069928880880112032E0B8F80A90BDF81220698804AB404602F0C8
:200820001DFEB9F1000F8046B7D0706807F80090781C726880B24FEA29218154411C4A1C75
:200840007068B8F1000F89B2ABD101F800A092B2706802F800A0571CBFB247B1B8083080B6
:20086000314660880AF0D4FF28B1162003E00699288808800A2008B0BDE8F0872DE9F04F30
:2008800089B0044604F1080005908A4606886088DFF8045A07F050FA07900027001FB846AC
:2008A00006904FF6FF7900E0761C0698B84257DB04A80090059803794188421DB0B202F0D8
:2008C0007BFD5FEA000B4BD0BBF80A60BDF810209BF80810608802F0F2FC5FEA00083FD15B
:2008E00000F0DFF859460798001F00F050F805F118000090EB6900F0D2F85FEA00082FD19F
:200900007FB9608800234A4609210AF083FA686018B9AAF80060112036E0288B801C68804A
:2009200004E0298B6888891C88421AD1298B0698C919884214DB6968BBF80A007854BBF8DB
:200940000A106A6800F049F968682A8BE969BFB238180CF05EFD288BC7194E45BFB2A3D17F
:2009600057B1688897FBF0F02880294660880AF05FFF48B1162007E0B8F1000F08BF4FF0E2
:200980000A08AAF80060404609B0BDE8F08F80B202900020019070472DE9F04F85B00D46D7
:2009A000044604F108066088DFF8EC7807F0C4F94FF0000BA0F10108A0F1010A16E03988DC
:2009C0003A8B084612189245BCBFA8EB010139837B683A8BF969C0180CF01BFD3888398BBD
:2009E000081838800BF101001FFA80FBB0888345BCBF3888504537DA306810F81B2000EBE7
:200A00004B0004A9407802EB002080B202F002FD01000BD14FF0010900F02EF8786808B121
:200A20000CF07EF8484605B0BDE8F08F00F039F81FFA88F0FFF7ACFF07F118000090FB6986
:200A400000F02DF85FEA0009E6D178680028B6D100F01CF80F210AF0DDF900287860AED166
:200A600000F00AF81120DEE7608839460AF012FF0028D8D01620D6E7306810F81B1000EBA3
:200A80004B00407801EB002028807047608800234FF6FF72704706F118000090F36960888D
:200AA0006CE22079BDF81020039070472DE9F04786B08846044604F1080900F094F805906E
:200AC00009F1050204A8009099F80430B9F80210B9F8000002F070FC0027BA4605460FE0E1
:200AE0007268FF21B95480B272688154471C7068328BF169BFB238180CF08BFC308BC719DD
:200B0000BFB2BDB1BDF81020297A608802F0D7FB5FEA000A0BD1FFF7C4FF29460598801F2F
:200B2000FFF735FFFFF7B7FF5FEA000A10D06889A8F80000002F43D0708897FBF0F03080BF
:200B4000314660880AF0B5FE002843D0162041E07FB9FFF79BFF11210AF05CF9706020B905
:200B60006889A8F80000112034E0308B001D708009E0308B7188021D9142DDD10599891F54
:200B8000C0198142D8DB7168688978546989726800F023F8BDF81020B9F802100DF11203DE
:200BA000284602F05BFC0546781C002DBFB297D07268BDF81210B954BDF81210090A92E779
:200BC000B9F80000A8F80000BAF1000F08BF4FF00A0A504606B0BDE8F087781C80B2090AAF
:200BE0008154471C70476088DFF8AC6607F0A4B82DE9F041044604F1080784B00D46388806
:200C0000904602A902F006FC06002FD0307A80060BD5BDF8080000F093F903000BD060884B
:200C2000122231469847060021D1787A002814BF5220207901E00E2619E0019000200090EB
:200C40007B887A683988608800F092FA060007D1787A70B960880AF03DFE50B116200CE051
:200C6000162E04D1002688F8006002E0012638882880787A00B1002630465EE02DE9FF4111
:200C8000044604F108068846308800A902F0C2FB002705004CD0287A80060BD5BDF8000024
:200CA00000F04EF9030015D0608812222946984707003ED16588284600F004F9010006D175
:200CC0004FF6FF7000F0FEF801002DD00D800022974B02E00E272CE0521C5878D2B2824242
:200CE00022D248680C2505FB02000588002DF3D10C2231460CF08DFB0C22314601A80CF02C
:200D000088FBB2886088002317210AF083F8039060B1B288B1680CF07CFB608801A90AF068
:200D2000DFFD48B1162008E0092702E0112700E001273088A8F80000384604B0BDE8F081CE
:200D40002DE9F04383B089460027044604F10805608800F0B7F85FEA00084AD0287801281A
:200D600043D14146284600F050F8A0B1D8F804501820019068880090AB88AA682988608896
:200D800000F0F6F90746162F02D10020A8602CE05FB3288827E000250EE0019070880090E6
:200DA000B388B268608800F0E3F90746162F17D10020B0606D1CEDB25D484078854214DA46
:200DC000D8F804100C2202FB05121646318861B16B1C83421DBF9089002816201820DCE72C
:200DE000002FE7D03088A9F80000404600F07DF82FB960880AF081FD20B1162003E0162F52
:200E000008BF00273846BDE8FE832DE9F84F0C46002100250E464FF00C0B45480EE099424B
:200E200002BFBCF8027093B2BB4224D1BCF804305D19ADB29A18761C92B2F6B243789E420C
:200E40000EDA63680BFB063CBCF8003043B10029E5D1BCF80450BCF802201946AA18EAE710
:200E6000022E2CDB28004FF0000904D00BF066FF5FEA000801D1002022E0CA4619E00BFB43
:200E80000A07B96859B1BA8809EB08000CF0C1FAB88848441FFA80F9B8680BF041FEBAF1BE
:200EA000000F04D00C22002138460CF029FB0AF1010AB2456068E2DBC0F80880858001207A
:200EC000BDE8F28F1A4A5268002100E0491C194B1B78C9B2994206D232F831308342F5D12D
:200EE00002EBC10070470020704770B5044600250BE0B06808B10BF013FE0C220021304695
:200F00000CF0FEFA002030806D1C09484078EDB2854206D260680C2101FB05063088002861
:200F2000E7D14FF6FF70208070BD00003B470020544800207C470020451201009C480020DB
:200F400080B5FFF703FB00B1806802BD30B583B00C78022C10D14C682578647805EB042420
:200F6000A4B242F60215AC4206D102240194069C00940BF0F7FC3EBD01203EBD2DE9FE4FAE
:200F80000D468046287AC00693461E464FF0000A0CD55846FFF7D4FF030000F0E4800A227F
:200FA0002946404698475FEA000A49D128780C9F0D9CDDF83890022816D100F016F94FF40C
:200FC0002051401A012810D9801E3AD0401E14D0FD3876D0401E00F07D80401E6AD0401E8E
:200FE0006FD0401E00F09180A7E0002C2AD1E868017839800278416883E0002C22D101205D
:2010000038800021E868007830706889401C80B202F000FA398860B10278921C5118398008
:20102000418971704189090AB17002784168F01C68E0081D388004220021701C0CF060FA8A
:2010400093E0002C62D1E8680488042038803470200A70700DF10201204602F0DBF9050026
:201060001ED0EC68BDF802204FF6FF7800AB414602F0F4F940B92B786A689648022106F025
:20108000EBFD08B9ADF80080207802280AD161680222301D0CF0BDF93888801C388001E004
:2010A000ADF80040BDF80000B070BDF80000000AF0705AE054BBE868016840460CF0D6F904
:2010C00002E01CBBE8680088022139803070000A70704AE0E8680CF0BFF982B2A242B8BF5C
:2010E0004FF0070A41DB944208BF002206D009EB04019142B2BF4A46121B92B23A80E968A6
:20110000611830460CF085F92FE014B14FF00B0A2BE0E8680721398001783170417871704E
:201120004188B1704188090AF17001793171C1887171C088000AB07117E05846FFF706FA43
:2011400000281CBFD0F800C0BCF1000F0BD00F980290CDF8049000943B4632462946404659
:20116000E047824601E04FF00E0A5046BDE8FE8F2DE9FE438046894617461E4602A948469A
:2011800002F048F905002CD0BDF80800FFF7DEF900281CBFD0F804C0BCF1000F1FD00A98B5
:2011A0000B9C0090019433463A4629464046E047060017D1FE2C15D02878022812D100F0B4
:2011C00014F842F6021188420CD13878797800EB012292B24946404600F060F802E00E26AB
:2011E00000E001263046BDE8FE8368680178407801EB002080B27047704700207047E0B533
:201200008DF808200223120A8DF80920FE2201920022009202AAFFF7ABFF0EBD38B504467D
:201220002D480D46816820460CF020F9800705D529462046BDE8344002F085B8012032BDF4
:201240009C4500207CB50129044605D0022922D1012109F0DFFEF0B92046FFF733FE08B10E
:20126000FFF743FE01A800904FF6FF7502231B4A2946012002F0A0F80BE0F068016820468F
:201280000BF0B4FDBDF8042000232946304602F0E5F80600F1D173BDE4470020F8B5104FA3
:2012A00004463878FF280D46164611D00A200BF071FF68B1B1210170448000214170017184
:2012C000C580068101463878BDE8F4400BF07CBBF1BD000094BA010054480020A8BA010024
:2012E0003B4700202DE9F84FDFF82C4BDFF82C5B2070072100206861DFF8240B01700D21FD
:2013000041804FF404718180DFF89C0BDFF89C1BA9618A7E0270FF2ACB7E437008BFFF2BAD
:201320000E7F86704F7FC77091F81EC080F804C0C97F417116D1FF2E08BFFF2F12D1BCF1EF
:20134000FF0F08BFFF290DD1DFF8981B0A7802704A7842708A788270CA78C2700A79027162
:2013600049794171DFF8801B0278DFF8C08BDFF8C07BDFF8C0EB0A7042784A7082788A7075
:20138000C278CA7002790A714079DFF8AC2B4871FF21DFF8A80B017041708170C170017163
:2013A0004171101D017141718171C17101724172002101708172A021818103218173072158
:2013C000C1730021017428214182012101750021817502F15A0100224A7001220A7042750A
:2013E0000020DFF85C1B0880D8F82C30DFF8541B58780870197839709A782A709E683679A2
:20140000761E8EF80060DB78DFF83C6B6B704FF4967333801B261B2392FBF3F306FB13227F
:2014200002B10122D218504328814FF0180A881C0AFB00F080B20BF061FEDFF8DC6BB060FC
:20144000002800F09C803878002800F09B804FF49071484380B20BF051FEDFF8CC9BC9F82B
:20146000040008B9B06888E0387880010BF046FEE86020B900F0D8F8D9F804007DE03878F4
:201480000BF03CFE286128B900F0CEF800F0CFF8E86872E038780AFB00F00BF02FFEDFF8FA
:2014A0008CABCAF8000038B900F0BEF800F0BFF800F0B7F8286960E03878DFF874BB40018E
:2014C0000BF01CFECBF8000050B900F0ADF800F0AEF800F0A6F800F09DF8DAF800004CE0EF
:2014E000387800010BF00AFEDFF8481B086060B900F09AF800F09BF800F093F800F08AF88B
:2015000000F08BF8DBF8000037E0387800010BF0F5FDDFF8241B086080B900F085F800F0BC
:2015200086F800F07EF800F075F800F076F8DBF800000BF0D3FEDFF8FC0A1DE03878302192
:2015400048430BF0DBFDDFF8F41A0860D0B900F06BF800F06CF800F064F800F05BF800F031
:201560005CF8DBF800000BF0B9FEDFF8C80A00680BF0B4FEDFF8C00A00680BF0AFFE4FF4E0
:20158000804142E000F0FFF9074605F056F90CF031F9DFF8F00B0069006880470CF026F944
:2015A0000CF020F9DFF8980A002101600160C160C16004F08FFF0BF033FCDFF8881A40F221
:2015C000FF7008600CF042F906460CF03FF9864208BF0CF003F9D8F80C0069780088084366
:2015E000DFF8A41B08803846DFF8301C096888470C21DFF82C0C0CF0EDF8207800210BF01B
:201600007DF900F09BF84FF400512078BDE8F44F0AF0E6BC28690BF061BEDAF800000BF0A9
:201620005DBEE8680BF05ABEB0680BF057BED9F804000BF053BE10B50C46E00786B013D507
:201640000CF0F0F838B100218160DFF8A40B0068010018BF8047DFF8C007007800210BF0FC
:201660004DF984F001005DE0A00707D500F05CF83C200CF0ABF884F0020053E06107DFF8C8
:201680009C0723D5DFF8A02901795268C0684FF4907303FB012200EB8110911D12F82C3FAD
:2016A000049353891B0903938B8B0293D2885208019200F134020092012290F830300978C6
:2016C00000200CF083F884F004002BE0210607D500F02AF83B200CF079F884F0800021E01E
:2016E000A10508D5DFF83C0B016841F00041016084F4007016E0610504D502F002FF84F485
:2017000080600FE0610405D581200CF093F884F4804007E0A10443BF4FF0FF31416184F444
:201720000050002006B010BD0020049003900290019000900146002301227047F8B504F0D7
:20174000A3FFDFF8E40ADFF8E0680068DFF8E07780470446002005F019F940F201400CF0C6
:201760005DF8DFF8200A0069C06880470CF03EF8DFF8B807DFF8B41AC06A8068407908700B
:201780000025FEF7C7FBDFF8A80A0CF01BF80CF015F80CF00FF8DFF89C0A00210170017148
:2017A00041718171C171017241720022DFF8880700F10E010A70A0224A8007224A71032296
:2017C0000A7100220A738A7200F8592F0122CA720021427081700BE070684FF4907101FB4D
:2017E00005004179012908BFFDF766FF6D1CEDB238788542F0DB0BF0D9FF0AF06FF9FDF74D
:20180000CEFDDFF8341A00200870DFF8301A08700120DFF82C1A08700020DFF8281A087040
:201820000120DFF8241A08700020DFF8201A0870DFF81C1A0870DFF81C1A0880DFF8181A2E
:20184000087004F05CFF00F099F80020F2BD2DE9F0411446DFF8D85608B12A780270DFF827
:20186000C88711B198F801000870002C3DD0002600271CE0C9B2DBB2085502F130000179CA
:201880001955591C427900F033F8827900F030F8C27900F02DF8027A00F02AF8427A00F0F2
:2018A00027F80078C9B24E1C08557F1CFFB2287887421ADA38460BF0ADFF0028F5D1D8F8C3
:2018C00004004FF49071F6B201FB0700DFF84C15C968375501EB871200680078711C4B1CC7
:2018E00080280CBF00200120C4E70020BDE8F081C9B20A55491C704738B504460D460BF0D8
:2019000089FF48B9DFF81405C068A10108580A21B0FBF1F02880002032BD38B505460C462C
:201920000BF078FF48BBDFF83409DFF8F0244068D26800F050F8811D0B7802EB83153CB186
:20194000CB8D898D5B1C4900E20059438A4201D2122032BD0A216143296090F8920058B1A0
:2019600000F011F804460020687128684108A8790AF090FF00F002F8002032BDDFF89C1824
:20198000096820460847DFF8A0080068004738B50C00054601D1122032BD0BF03BFFB0B91E
:2019A00000F016F801680978402901D00C2032BD00210A5D431A491C102983F8E220F8DB17
:2019C000012180F8E4100521FDF70EFF002032BDDFF8880840684FF4907101FB0500704738
:2019E00010B504460BF016FFA0B900F070FA402901D00C2010BD00F1F0010A78012A03D17F
:201A000006220A77022102E006224A700D21FDF7EBFE002010BD10B504460BF0FBFEF0B992
:201A200000F0DFFB00F1F8010A78022A06D1817900F1F902002008F072F80FE00268127822
:201A4000802A08BF082107D0402A07D14978090701D4112010BD0E210BF0D8FE002010BD42
:201A600010B5040001D1122010BDDFF8BC05407808B10C2010BDFDF792FC2078DFF8E017E2
:201A800000F01F0020704A7810404870002010BD38B50D00044606D0DFF89004C06A806859
:201AA0000079844201D3122032BD04F0FDFE032803D02046FEF773FA02E0DFF87007047099
:201AC00001202870002032BDDFF86014C96A89680979884201D312207047DFF8581408700B
:201AE0000020704710B5140019D011B1012908D015E0FEF76DFA10F1800F20700DD13020EA
:201B000010BDDFF82804C06A80680168007900EB4000401810F8030C2070002010BD1220B8
:201B200010BD2DE9F0410C0082B0074690461D4627D0BA4E3078404528D338460BF06AFEC5
:201B4000002847D100F06AFA01FB070706F050FB1B2298FBF2F21B2303FB128303B1012349
:201B6000318910181818814204DA01200BF01AFE07202FE030781C2814DA002D18BF012D3C
:201B800001D0122026E0B8F11C0F04DB8A200BF051FE30201EE02B464246214638460BF06E
:201BA00051FE13E0424621463846FEF765F888B920460AF0B5FFB879ADF800000DF10202F7
:201BC0000120ADF8020000A907F0E0FF3846FEF711F90020BDE8F68170B50646282E01DB62
:201BE000122070BDDFF87046207808B1212070BD04F04AFDDFF88C55286980688047700097
:201C000000F6621189B200200BF0C8FDDFF8540640F6070101804060002141808160017B71
:201C200001F060010173417B01F0F00141F00201417302218173DFF83016016100214161FF
:201C4000C17B01F0F00141F00101C1730C212170296989698847002070BD2DE9F041044610
:201C60000D46282CB8BF262D16460FDA002E18BF012E0DD0022E18BF032E09D0042E18BF83
:201C8000052E05D0062E18BF072E01D012205BE0DFF8C48598F8000008B1212054E004F0EC
:201CA000F3FCDFF8C875DFF8C81541F60A0038800022002078807F60B860387B00F0600040
:201CC0003873787B00F0F00040F00200787360006630B8738020F873DFF898053861796156
:201CE0000280857040F6C4124260C670027A02F0FE02027200224272C260C27A02F0F0028F
:201D000042F00102C272002008800021DFF868058180C1800470802145708670017285480B
:201D2000DFF860440078FEF73AF9092088F8000000222369DFF844055B68002198472169C4
:201D40008969384688470020BDE8F08170B50446282C01DB122070BDDFF8FC54287808B190
:201D6000212070BD04F090FCDFF80065DFF81015766041F609003080716100207080B06085
:201D80000022307B00F060003073707B00F0F00040F00200707360006630B0738020F07387
:201DA000DFF8E004306102600F22027101224271DFF8B424826055220273427382730022B2
:201DC0000261C27B02F0F00242F00102C273002008804880888000228020887100208860DA
:201DE0000021DFF894044170FF218170047000218180C1808021DFF88C4301720A2028703E
:201E000000212369DFF874045B6898472169896930468847002070BD844C002004480020BA
:201E20008C4C002070B5DFF830442078092818BF0A2801D0212070BD40F202400BF0EEFCD0
:201E40002078DFF8341409280BD1DFF8240400888880DFF8D8030078FEF7A1F80021002036
:201E600017E00A2817D1DFF81824538810889688CB801D1875198D809279802A18BF812A5B
:201E80000FBF7F22DFF8003493F90030D21A0A7201210BF07FFC0BF0A9FC0020207004F0C8
:201EA0002EFC002070BD00006C4C0020B63F005010B504460BF0AEFC40B900F008F8802948
:201EC0000CBF00211021FDF78FFC002010BDDFF88C0340684FF4907101FB0400016809783D
:201EE00070470000E81200507C4C002038B505460C460BF08FFCB8B9FFF76AFD00F1F90130
:201F00000A78520703D40F220A75072109E0DFF87C13C96801EB85110F2201F8242F4C70FC
:201F20001121FDF761FC002032BD00005CE00100BC4C0020854C0020EC490020744C002084
:201F4000984C00208B4C0020964C00202DE9F04180460D4640F67B40A91F164681423CBF51
:201F6000B11F81421F4611D2AE420FD3B7F5FA7F0CDA069CA4F10A0140F6774291423FBFA7
:201F8000781C71004843B0EBC40F01D3122040E040460BF03FFC00283BD100F03FF801FB0A
:201FA0000800BA49C96800F1770201EB881113792BB11378002B1CBF0F2B102B02D0527AEA
:201FC000012A01D13A2024E002681278402A05D190F8F920920758BF11201AD500F182028C
:201FE0008D81CE810F824C820223937000239380838ED680DB1D1380178154810122CA710A
:2020000090F8F910890754BF00210F210BF0FEFB0020BDE8F0810000F44E00208F48406830
:202020004FF4907170470000B04C002080480020844800200C4F00201C4F0020104F002030
:202040001010044000000460F8B5834C2178092918BF0A2967D00B291CBF0C290D2962D084
:202060008B4DA97C002918BF012904D003291CBF022904290ED12A79002A18BF012A09D17E
:20208000032918BF022902D12B8AA02B77DB002847D0012873D1A87B012844D000291CBF5D
:2020A0000129042912D17B480078002867D06B494978814201D10920F2BD5E480278011D2C
:2020C0008020FDF7FDFF08B10B20F2BD012009F01EFD286000260120A87304F0D5FA0BF000
:2020E00055FB6D48182101FB0607387B40F080003873A87C012807D026B90BF0A7FB00F5F6
:20210000C87000E00020B860761C032EE9DB207828B9A97C6148085C20700BF033FB002064
:20212000F2BDA87B08B92120F2BDFFF72CFC06460BF024FB012804D00BF074FB29688842D6
:2021400007D104F0A1FA40F202400BF067FB012700E000270020A873286804F017FC2846D8
:202160000BF088FB207810B904F0C9FA02E00FB10BF008FB2949096830468847CFE7122019
:20218000F2BD00002C4F0020944C0020017841F08F010170C17841F02001C170017941F0E3
:2021A000C0010171417941F001014171817841F0300181700020704710B1284949780170C6
:2021C0000020704770B504460D4616460BF022FB30B900F006F800F58E70057046800020CD
:2021E00070BD1E4840684FF4907101FB04007047C44C00202A4B10B1012803D00CE01980C2
:2022000000207047188810701888000A507083209070AD20D070F3E7122070475048002032
:20222000E84E0020040009404C480020B94C00208C4A00209C4C0020864C0020BA4C00200C
:20224000874C0020884C0020BB4C0020894C00208A4C0020BE4C0020B84C0020B04C00201B
:20226000D04E0020404E002029417671284E0020204F0020A84E0020DC4E0020020000801A
:20228000C44E0020844E0020C04C002004480020EC490020BC4C0020244C0020C0D90010CC
:2022A000984C00200A7802704A7842708A78C97802EB0121418070472DE9F0420C46062C1C
:2022C00084B0074615461E460CD1688800F0BBFD019008B9022037E0C0684088288001988D
:2022E000C78807E00C9A0B9901AB00F0F7FC5FEA000928D101990A980870DFF8100C017864
:20230000491CC9B201B901210170142C0198017106D10198408868800199C9682889088120
:2023200000962B46019802792146384600F00FF85FEA000904D101981E2100F0E9FD02E0EF
:20234000019800F01CFD484604B0BDE8F0822DE9F041044684B00E4617469846172000F007
:20236000FBFE050025D00A9A100003D04146281D904700E00020010A2E70E9706F70A87047
:202380000521001DADF80800ADF80010019500A9DFF8C40C00780028204602D000F0DBF916
:2023A00001E000F009F8040004D028460AF0B8FB00E013242046FDE010B50B88DFF89C2C07
:2023C0000C2404FB0322303A536833B94B685360098950811181002010BD162010BD80B518
:2023E000052000F019F858B9062000F015F838B9042000F011F818B9072000F00DF808B1CF
:20240000012002BDDFF8580C007800281CBFBDE8014000F025B802BDDFF8401C0C2202FB56
:20242000001110B5A1F1300484B06168A9B1DFF8282C12787AB1ADF80000019100A9208940
:20244000ADF80800608900F086F910B160680AF067FB00206060012000E0002004B010BD10
:202460002DE9F843DFF8FC4BDFF8F45B94F80090DFF8F48B4E46D8F8000000EB0617387839
:20248000012811D1F86800281CBFC16800290BD0018891B9407FFF2806D16221384600F020
:2024A000B4FBF96800204877761C2878F6B2864228BF00264E45DED10646287886421AD29C
:2024C000DFF8940B0078A0B1D8F8000000EB0617384600F013F8010003D0384600F060FDCD
:2024E00009E0761C2878F6B2864226BF002020702670012000E00020BDE8F2832DE9F041A4
:202500000446DFF82C0CE56800886A8A84B0EE88B04238BF0646288A22B9811CB14206DABD
:20252000871C05E0811AB142B8BF871A00DB3746B8B200F011FE5FEA000839D06888ADF8BD
:202540000000CDF80480ADF80870688A50B9288A08F8010BBFB2000A08F8010BB7422CBFF1
:20256000BF1E2F8AE868698ABFB209183A4640460AF04FFFE08800A900F0EDF8060013D1D2
:202580002888401E2880698A2A8A7918698289B2914204D30021204600F002FD09E080B2EC
:2025A00038B9FF20687704E040460AF0B9FA00E01326304604B0BDE8F0812DE9F0470F461A
:2025C00084B08146388800F03EFC06001CBFF468002C7AD0F088484577D12089002870D005
:2025E000401EDFF8508B227F208180B2D8F8001001EB0211C988884203D16321304600F09F
:2026000004FB606920BB78680178427801EB0225ADB23A89A91C91426FF0010A0BD151465A
:202620000AF058FD78603D813A46307A494600F067FA68B94AE028460AF080FB6061258314
:20264000514678680AF046FD78603889801E38816069A0B3638B3A89258BD1188D422CDB9A
:20266000D8F8005094F81CE005EB0E156D888D4221DB796818180AF0CCFE608B398908183D
:20268000608380B2218B88421FD17088ADF8000000AA606901904946208BADF80800307A8D
:2026A00000F02EFA10B160690AF03AFA002060616083208309E0052104E0042102E00921BF
:2026C00000E00621304600F09FFC012004B0BDE8F087F0B585B004460D4616461F460A229D
:2026E000002101A80AF00CFFADF80C60AEB97888ADF80400DFF8380A0088ADF80800F8683C
:2027000058B1DFF8301A027F096801EB02114988ADF806100089ADF80A0001AB0FF20930F4
:2027200000902A4615212046FFF711FE040008BF002E09D10120387000220020387101462A
:20274000384600F026FA03E017B1384600F017FB204605B0F0BD70B50D460446288920B1B4
:20276000DFF8CC190988814201D21B2070BD686804210AF0AFFC0646288930702889000A1C
:2027800070702888B0702888000AF0702889051D4FF6FE70844213D10C200AF0FBFC010021
:2027A0000CD0902008704C8002200871CD808E60DFF8840900780AF007F917E0132070BD46
:2027C0003346AAB2002120460AF0D4FF010007D002280DD007280FD012280BD01F280CD1AA
:2027E000DFF87408017809B1491E0170002070BD142070BD022070BD042070BDF8B5044636
:2028000000200D4660602879022826D1E888042823DBA9680A784B7802EB03268A78C9787A
:20282000B6B202EB0127311D8142BFB215D1052F18BF042F07D0062F18BF072F03D038460B
:2028400000F001FB48B1268127806FF00301A8680AF040FC60600020F2BD0120F2BD0B88AA
:20286000037002220B881B0A43700B88012B06D14A88827004224988090AC1700CE0022BA8
:202880000AD14A8882704A88120AC2708A88027106228988090A417110467047022A1BDBC7
:2028A0000A784B7802EB032202800288012A05D18A78C97802EB012141800BE0022A09D1B0
:2028C0008A78CB7802EB032242800A79497902EB0121818000207047012070470A880270D7
:2028E0000A88120A42704A8882704A88120AC2708A8802718A88120A4271CA888271C98898
:20290000090AC17108207047082A18D10A784B7802EB0322028011F8022F4B7802EB032290
:20292000428011F8022F4B7802EB0322828011F8022F497802EB0121C18000207047012081
:20294000704705E0022A00D10EE00120704700BF0A8802700988090A417002207047022AFB
:2029600000D101E0012070470A78497802EB012101800020704780B54B8800F8013B0422C1
:202980004B881B0A00F8013B0B8800F8013B0B881B0A00F8013B0B8873B94B88022B04D1C4
:2029A00049680AF02AFD082206E0032B04D10822091D0AF02EFD0C22104602BD10B504466B
:2029C000042A084627DB0178437801EB0321618010F8021F437801EB03212180801C21887A
:2029E00099B96188022906D1082A14D104210AF017FB60600DE0032908BF0C2A0BD1014659
:202A00000822201D0AF005FD03E0012908BF042A01D1002010BD012010BD07E00A2A00D1B8
:202A200024E001207047000000BF00BF0A8802700A88120A42704A8882704A88120AC270F4
:202A40008A8802718A88120A4271CA888271CA88120AC2710A8902720989090A41720A20A1
:202A600070470A2A00D101E0012070470A784B7802EB0322028011F8022F4B7802EB0322F9
:202A8000428011F8022F4B7802EB0322828011F8022F4B7802EB0322C28011F8022F497817
:202AA00002EB012101810020704705E0042A00D113E00120704700BF0A8802700A88120A8E
:202AC00042704A8882704988090AC17004207047042A00D101E0012070470A784B7802EBA6
:202AE0000322028011F8022F497802EB0121418000207047E0E7042A00D1EEE7012070471A
:202B0000F8B504460D46164610200AF043FB070016D0A02038707D80002078702EB10C2240
:202B20003146381D0AF075FC04E00C220021381D0AF0E6FC3946204609F046FF0020F2BD08
:202B40000120F2BD2DE9F04180460D4616461F4620200AF01FFB040019D0A220207066701B
:202B60006580069820716771079929B1182204F108000AF04EFC04E0182204F108000AF05F
:202B8000BFFC21464046BDE8F04109F01DBFBDE8F08170B50D0088B0044616460ED11622A5
:202BA00000F070F8ADF8086036B96088ADF80A0003A9E06800F069F802A800E000200190AA
:202BC0006023002000902A46E188207AFFF7BAFF08B070BD00B585B059B9ADF80C20428824
:202BE000ADF80820C26802B15288ADF80A2002AA00E0002201926123002200920A46C18870
:202C0000007AFFF79FFF05B000BD30B5044689B0E0680D4638B34188ADF80A10622D18D146
:202C2000DFF80C25C18812888A4238BF1146428A008A801A80B20AB9801C80B290FBF1F26E
:202C4000ADF80C2001FB120080B1BDF80C00401C06E0DFF8E014007F096801EB0010C08862
:202C6000ADF80C0002E0062200F00BF86088ADF808002B4602A80190002200F0C0F909B0E1
:202C800030BD002102A80AF03BBC38B504460D461222002128460AF033FCF4B1DFF8940401
:202CA000217F00680901095A2980217F00EB011149886980DFF878140988A9802188E98070
:202CC00061882981A1886981E188A9812189E981217F00EB0110C088288231BD2DE9F843DA
:202CE0005FEA030904468846164645D0012108F091F900283ED0DFF84404DFF86413007837
:202D000009780025002E0CBF0D46084600E06D1CEDB2854226DADFF85023126802EB0517D7
:202D200079880029F3D14EB120200AF0E7F9F860C0B1202200210AF0E3FB01E00020F8602F
:202D40000020387005F1400078805FB1FC805EB1707A3872DFF8DC030068F968301A001174
:202D6000087703E0152008E087F80880C9F80070002002E0142000E00120BDE8F28338B55E
:202D80000446E56855B1E86808B109F0C9FE686908B109F0C5FE28460AF0A0FA1022002132
:202DA00020460AF0ADFBFF20607231BD10B5DFF884231368002100E0491CDFF88423127800
:202DC000C9B291420AD20C01E25A002AF4D101461022E0180AF01DFB002010BD152010BD1F
:202DE00030B5A14B1B680021002203E0844208BF491C521CD14C2478A2420DDA1401E55C1F
:202E0000002DF6D0E418E468002CEFD0C94D247F2D6805EB0414E9E7C8B230BD10B5002119
:202E200001E0491CC9B2C64A1278914209DAC14B1B680A01D45A002CF3D08442F1D1D0185A
:202E400010BD002010BD002201E0521CD2B2BB4909788A420ADABB49096801EB02114B8847
:202E6000002BF2D08342F0D1084670470020704710B5002300E05B1CB34A1278DBB29342DB
:202E80000DD200F026F8F6D0D4888442F3D1D468002CF0D064888C42EDD1104610BD0020B6
:202EA00010BD10B5002301E05B1CDBB2A34A127893420CDA00F00DF8F6D01478062C01BF0D
:202EC00014798C42D4888442EED1104610BD002010BD9C4A126802EB03125488002C704785
:202EE000002201E0521CD2B2944909788A420BDA9449096801EB02114B88002BF2D00B793D
:202F00008342EFD10846704700207047B94800204FF47A724A4300F1090301460FF2150019
:202F20000AF0E1BA10B50446607A09F07DFDFF20607210BD10B504001CBF6088002807D057
:202F40001721204600F005F82046BDE8104016E710BD1CB50446207804280AD10020019056
:202F600000900A46E188207A1323FFF7EBFD12220FE0022818BF062805D100222046FFF7B4
:202F800008FE142205E0032809D1002200F04AF80622E18802B0BDE810400520B2E013BDF8
:202FA00070B5044688B0E668F0680D4618B109F0B7FD0020F060E06878B10188ADF80A10D2
:202FC0004188ADF80C100189ADF80E10418AADF81210008AADF8100002E00C22FFF751FEF4
:202FE0006088ADF80800642302A801902A4600F006F8002075773082708208B070BD002067
:203000000090E188207A9DE538B504460D46608806F06DFC2A4600F004F82046BDE83240F1
:20302000ADE600212046D5E500B583B0ADF80410ADF8062045490A78531CDBB2002B06BF54
:20304000012301221A460B7001AB414900911621FFF77DF90EBD0000D6460020B4470020C2
:20306000D8460020BA480020DC46002007212DE9F84381460F460025324EDFF8CC8013E05E
:20308000306800EB0514207868B1E08848450AD1072F04BF608806F02AFC3A46FFF7C1FFE0
:2030A0002046FFF76CFE6D1C98F80000EDB28542E6D32FBB16E0306800EB051738780028BB
:2030C0001CBF787AFF280CD0F888484509D13846FFF728FF14213846FFF73BFF3846FFF747
:2030E0004EFE6D1C15480078EDB28542E3D30425FF224946284600F005F86D1C082DF7DB46
:20310000BDE8F18310B5134B0C2404FB0030A0F13004608988420AD1606840B1FF2A1CBF04
:203120000178914203D109F0FBFC0020606010BD34470020E0460020D4460020D54600207C
:20314000D7460020DC460020D8460020B9480020F52A0100B447002080B5001D80B20AF0D8
:203160006DFB28B1BDE804406FF0030109F0B2BF02BD70470020704770B5DFF8C85928784E
:203180000624604309F0BAFFDFF8BC19086008B9132070BD0020FF2206E03380401C002322
:2031A000F270B2703371C0B22B78984209DA0B6804FB003600280CBF4FF6FE734FF6FF730D
:2031C000EBE70FF2A14007F0EDFC0FF6A90008F0EFFA0FF6E90007F089FE002070BD70B5EE
:2031E0000446208868B160680378426800F073F948B9606803784268DFF8500900F06DF907
:2032000008B9022070BDA078C01F0A2801D3182070BDDFF83C59288820B12188C0F5803041
:20322000884201DA012070BD0C2009F067FF060001D1132070BD002007E06268298802EB69
:203240000012401C5181491C298080B221888842F3D30020306008222146301D0AF0D9F85C
:20326000686810B96E6004E0084601680029FBD10660002070BD38B502460846DFF8D01862
:203280004C68002301E02346246894B1A5686D899542F8D12268002B0CBF4A601A6018B12C
:2032A0000822211D0AF0B5F820460AF017F8002032BD012032BDDFF89C180870704710B5F2
:2032C000044610461422114203D000F00FF9012204E04A0608D500F009F900220146204605
:2032E000BDE8104007F0D7BEC80701D4022010BD002010BD70B504460D46A8061E4609D51B
:20330000104600F0F3F801462046BDE87040012207F0C1BE882005420FD0104600F0E6F8EF
:20332000014605F00802204607F0B5FE48B1717A41B1317A012904D070BDA80701D40320E4
:2033400070BD002070BD7CB50446002000900D460223DFF804284FF6FF71012000F02CF863
:20336000060026D0002304221D21204607F052FD0190E0B170890199ADF800002B4604202F
:20338000ADF80200002201200870002001994870FF20019988700199C87000A9204600F0D7
:2033A00007F9040006D0019809F0BAFB02E0152400E00124204676BD2DE9F0478146DFF848
:2033C000900744688A4690461E4600E02468F4B1002700E07F1CA088BFB28742F6D2A068BB
:2033E00000EB07156889484528BF8245F2D33EB1297868683346424604F02EFC0028E9D075
:20340000089810B1A16849890180284600E00020BDE8F087F0B5DFF83827536800E01B686C
:20342000D3B19D686E89B042F9DB9F88BA199042F5DA4FF0000C01E004F1010C1FFA8CF4E4
:20344000BC42ECD205EB0412B2F80AE08645F3D101B10E801046F0BD0020F0BD2DE9FC4124
:2034600004460027ADF804704FF6FF786089404515461E4608D001AA0092401C2378626803
:2034800080B2FFF799FF07462378626800F023F830B923786268DFF8B40600F01EF808B111
:2034A00060890CE023786268DFF8B00600F015F858B11FB1BDF80400A84203D0284600F09B
:2034C000C7F803E07889404400E0608906B130803846BDE8F681DFF88806022104F0BCBB08
:2034E00080B500F08AFA00B1008802BD80B500F084FA08B1807802BD102002BD70B50129DA
:2035000082B00446154616D0032918D0052925D0072927D0092929D00B292BD00D292DD003
:203520000F292FD0112931D0132933D0172934D0192936D039E0294608F03DF933E006F08F
:203540005DFAADF8000000A9204608F03DF906002CD12988204607F007FC27E0294608F0B0
:203560003FF920E0294608F053F91CE0294608F05FF918E0294608F071F914E0294608F081
:203580007BF910E0294608F085F90CE0294608F090F908E008F09EF905E0294608F0A0F9AA
:2035A00001E008F0AAF9064600E00226304676BD2DE9FC410D46044616461F4601A900F047
:2035C00029FA5FEA00081DD156B100F037F8BDF80000FFF78BFF00F036F85FEA000811D1DD
:2035E0002946204608F09AF95FEA00080AD1019CFF2F07D0A31C1E2221460FF2954007F06A
:2036000095FBE7704046BDE8F6817CB50D460446164601A900F0FEF917280ED04EB100202A
:2036200000F00CF8BDF80000FFF760FF00F00BF818B92946204608F066F976BDADF80000C4
:2036400000A92888E6E601460122204607F023BD10B50446FFF744FF08B1611E0C18A0B2A8
:2036600010BD00002DE9F0470D468046A87800241E2888B0914614D1404600F0DFF9040047
:203680001EBFA078FE28FF2822D0002000900022AB78E078414607F01EFB204600F0E2F9E1
:2036A00016E0122804BF6878012813D0404600F0C5F904001CBF2279002A0BD0100607D487
:2036C000A978404607F063FB207940F08000207100206BE0DFF87C743878FF2817D0A97803
:2036E000881E172813D20FF27C4A48080AEBC000A0F10806306800281CBF7068002806D024
:20370000287810B96A78012A03D1122901D006204CE002A90091AB88AA6869783668B0470A
:20372000060042D1AA7852080AEBC20202A952F8042C4046904706001CD1AB78042B34D070
:2037400002A8009000223878414607F0C4FA06002BD1A97802A807F033FB10B1002089F8CD
:203760000000A878122804BF697801291DD0E4B120711AE06878C0B9A8788DF800008DF891
:20378000046000A9A878042818BF0628BDF80800ADF80200404608F00EF828B100AB01223C
:2037A0001621404607F0D6FA0026304608B0BDE8F087002070472DE9FE430D46804628881E
:2037C0006988814200D308B901206AE00021ADF8041002914FF6FF7900E0401C002100911E
:2037E0000A466988002380B2FFF7E6FD070034D0BDF80400002835D100AB4A460521404681
:2038000007F008FB040001D111204AE002943878022806D101208DF80600BDF80000860847
:2038200024E002208DF806001221BDF8000090FBF1F6788904F8010B102200F034F81034E2
:20384000BDF80400401CADF80400B6B2BDF80400B04202D278894845BFD1BDF8040080B9B3
:203860000A201EE09DF806000128E2D138780228F3D1788904F8010B022200F014F8A41C22
:20388000DEE701A9404607F0ABFF48B101AB05221621404607F05EFA10B1029809F040F92D
:2038A0000020BDE8FE837889000A04F8010B2046796809F0AEBD10B582B04C8808888442E3
:2038C00000D308B9012016BD00F015F808B90A2016BD002016BD10B582B04C880888844291
:2038E00000D308B9012016BD00F005F808B90A2016BD002016BD002200924A1D0B7921469C
:203900005AE510B5044682B0084600A90088FFF781FD08B9012016BD017ABDF800202046C9
:20392000FFF7CDFC16BD70B582B006460D46002401E0641CA4B2A888844229DA286810F893
:20394000142000EB440000A9407802EB002080B2FFF760FD50B9286810F81410017028684B
:2039600000EB440149784170012076BD017ABDF800203046FFF7A3FC0028DAD0296811F88A
:2039800014200A70296801EB440252784A7076BD002076BD10B50C4682B02088618881420F
:2039A00000D308B9012016BD23796D48621DFFF794FD08B9102016BD00200090237961882F
:2039C0002088621DFFF7F8FC08B90A2016BD002016BD38B504460D4600A92888FFF71AFD35
:2039E00008B9012032BD017ABDF800202B462046FFF780FC32BD002070475549496800E068
:203A0000096829B18A6852898242F9D1081D70470020704710B50C4600F010F860B104B178
:203A200020608078FE2801D1172010BDFF2801D1002010BD162010BD022010BD10B5424AE9
:203A40001268002100E0491C3E4B1B78C9B2994206D206234B439C5A8442F4D1981810BD87
:203A6000002010BD10B50446A01C07F067F9FF20E07010BD10B50C46FFF7E0FF30B10179B4
:203A80004A1C944204BF01F08001017110BD000010B582B004001EBFA078FF28FE280BD05E
:203AA000002000901E232188E078172207F013F9FE20A070FF20E07013BD000070B50446FC
:203AC0004FF6FE70844282B036D04FF6FF7651B92046FFF7B3FF78BB3046FFF7AFFF050011
:203AE0002AD0048073BD012906D12046FFF7A6FF050021D02E800BE002291DD101212046E6
:203B000007F088FAC0B92046FFF798FF050013D0A878FF280ED0FE2807D0002000901E23C5
:203B2000E8781422214607F0D6F82846FFF79AFFFF20A8700020287173BD7047044800881B
:203B400070470000AE4800209848002094BA01002047002039470020CCBA01009CBA010044
:203B600090BA010049780100B33701007B780100B7370100F9780100B73801008579010009
:203B8000D7380100E579010003390100557A010003390100937A01002739010085790100FE
:203BA00095390100057A0100D33901000000000000000000EF7A0100D33901006F7B010047
:203BC000F7390100DFF8D4088178FF2900D170472DE9F84F40684FF4907202FB0104DFF835
:203BE000C008A179006800EB8110009004F20B100178012908BF417800F0A08004F17400C2
:203C0000007B022803D104F174010020087304F58C75E98811B1287908F0E2F960892081FB
:203C200004F5877EDFF87C0890F807C0817A077BC67A437B61447918711819441FFA81F8B3
:203C4000BEF80410491CAEF80410BEF800104144AEF80010827ABEF802105118AEF8021095
:203C600018212D68DFF84028DDB1D2F8009094F806A001FB0A9A9AF80EA035F81AB0D8442A
:203C800025F81A8094F8068001FB089898F80E8090F80A9005EB4805B5F84A80C844A5F822
:203CA0004A80BCF1000F08BF002E03D1002F08BF002B28D02389E589EB18A38100232374A1
:203CC000237F012B04BF638CE38343788BB10123237704F174039B78002B02BF04F1740372
:203CE0001B7B002B05D104F174039B7E0BB9638CE383009B2C331D7C4DB3022D04BFC57ACB
:203D0000002D20D122E0E383837A3BB100232374237F012B07D1638CE38304E0BEF80630AF
:203D20005B1CAEF806302389A5899D42CDD1207C08B1052B01D0082100E03E212046BDE810
:203D4000F44F09F013BD457A0DB102251D74DFF85C57C77B2E682568FF0707D50169E9609E
:203D60000022A17906EB41114A610CE0A77906EB471676691E601268A37901FB03218968BB
:203D8000E9600021E183DFF828174969097889074CBF807B812084F87400204600F0C1F9D5
:203DA00001280BD001212046FBF751FC00F008F801281CBFBDE8F14F09F0E4BCBDE8F18FA1
:203DC0002DE9F84FDFF8D406416880784FF4907202FB0014DFF8C806A179006804F1680555
:203DE00000EB81162868006804F18E0708B100200CE0A87B002804BF287E002807D1387896
:203E0000002804BF207F012801D1608CE0832089E18B0818401C6081204609F0A3FC012835
:203E20001EBFDFF890060078012801D100F073F9287E01280CD16A8B6189208909F08EFCB2
:203E400030B121896289481C82421AD06A8B0FE03878012815D17A886189208909F07EFC2F
:203E600000281FBF2189481C6289824209D07A88824206D0501E608180B209F00BFD401E2A
:203E8000E08306F12C0898F8100008B100F043F904F12E07287E012801BF688B2189491C54
:203EA000884237D1608104F18401204609F0D6FC688CE189608400202077E083608908183F
:203EC000A0812189688B09F0E5FCB988EA8B01FB00262A8CA88C8A4204BF3989884202BFAC
:203EE000698CFB88994207D0000900906B8CA1795208002005F0D2FD287F3870288CB88075
:203F0000688CF880A88C3881204609F0A3FC0220287600E0BE88E08B2268D2F80CC0401C7D
:203F200000FB06F3DFF8906540F6C41000FB03F18C44C2F80CC03668DFF880C53678BCF856
:203F400000E0DFF86025B609032E12D1D67BF60748BF4FF0000E0CD40EF101061FFA86FE2D
:203F6000BEF1010F12BF668AB8F80E6006F2DC5600E0668A5E434FF4C879B6FBF9F6761C52
:203F80006661ACF800E0A3614FF0180CE38B94F80690D4F800E084F82030DFF80C351E68C9
:203FA000DEF80CA00CFB0969D9F80890CEF8109094F80690D4F814B00CFB0969AAEB0B0A62
:203FC000C9F808A094F806900CFB0969D9F80890CEF808904FF0000994F806E00CFB0E6ED9
:203FE0009EF80C6006F0F00646F002068EF80C60D3F800E0A6790CFB06E6A6F80290DFF8DF
:20400000AC6494F806903668D4F814B006EB4919D9F814A00AEB4B0AC9F814A02D7E022DCF
:204020000AD1A57997F800A006EB4515D5F8149000FB0A99C5F8149092F80F90A5795FEA0D
:20404000C97935D50CFB05E5D5F80890A9F5A869C5F80890A5790CFB05E5D4F800E0AD68EA
:20406000CEF80850691ACEF81010A17906EB41114D6905F5F6654D61A17906EB4111496994
:20408000C8F80010A179BD88DFF8347406EB411100FB0570C861DFF82C140978A0790129BB
:2040A00006EB40101EBFDFF80814896A497810E006EB4511BD8849694543A1F5E661A5F50E
:2040C0001675A942DED30821204609F04FFB01201FE0C1721868A1790CFB010021684860C1
:2040E0000020107050709070D070107150719071D071107250729072D07210735073D0738B
:2041000010610720DFF8C01308702046FBF7B4FF0020BDE8F28F0020E0832089401C60812B
:2041200070472DE9F84F804608F10605DFF8700329780068DFF86CB300EB811608F1F909DB
:2041400008F1E80408F1660706F1250A07E0404609F000FB012875D14046FBF726FB787D90
:2041600000286FD0787C02282AD0042835D0052848D0062878D00728E9D0092800F0D48077
:204180000B2800F0AA800C2800F003810D2800F0B9800E2800F0D5800F2800F0228110284F
:2041A00000F03681112800F04A81122800F00F81FC2847D0FD2800F05B81FE28CFD15CE17B
:2041C000387C012805D19BF8030000280AD0162142E14046FBF7F8FF46E1387C01280DD1E9
:2041E00000F082F900F0328100F082F9287808F1B40208F1AC0109F0A9FAB0E7404609F09F
:20420000A1FA31E1387C01280FD19BF8020028B1012088F89200002020606060A07A0128F0
:2042200063D1062100F065F999E798F8E300012809D1404609F082FA012803D10020A072B5
:204240000120387427E108F1E30040780028F9D008F1C30208F19C0108F1D30009F06AFA87
:20426000012088F8E3007AE7387C012831D100F03BF93AD0A88B28834046FBF796FA00F076
:204280003BF90120B871207A0128607C0DD1C00606D50020707130684108B07908F0FAFA8B
:2042A0002878002109F042FA0DE0C00606D530684208B31D4146854809F015F928780122AA
:2042C000002109F02FFA002020722073E072A07245E7404609F022FAC6E0387C012805D1D2
:2042E000E07A012808BFFC219CD0AFE0404609F011FA01284CD10020E07288F892000120E7
:2043000038742CE7387C01280AD100F0EDF806D0002088F8920000F0EFF80120B87191E0B7
:20432000404609F06BFA9FE0387C012805D100F0DBF8DAD0A88B28830EE74046FBF760F857
:2043400092E0387C01281BD1207C022805D129784A46002005F0E3FBFEE6032807D12978DA
:204360004A461A2005F0DBFB00202074F4E600F0B5F80DD129784A46222005F0D0FB6AE022
:204380004046FBF718F83874F88A38830120207481E0387C012814D1607E012808D1A07ED6
:2043A000012804D100F094F8002009F0AFF9D3E600F094F86FD100F08BF8222009F0A6F900
:2043C00049E00120E076404609F09CF94CE0387C012808BF9BF802002AD04046FBF73CF81E
:2043E00042E0387C01280FD1707A012816D0307A01281CD100203072009002460146002321
:204400001A2005F04BFBA7E64046FBF76BF82BE0387C01280FD1707A012808D10020707209
:204420000090024601469AF800000023E9E7B87E0028E8D10AE04046FBF775F814E0387C4A
:2044400001280ED19BF803000028DCD1388B401E388380B2F8B92221404609F087F90120C7
:204460001AE04046FBF7B8F83874F88A388312E09AF8011000F03DF841E79AF801000F2885
:2044800009D100F035F8708A0090338AF289B189287805F027FC0020BDE8F28FB04C00200F
:2044A00010480020704E002080480020844800205CE00100894C00201C480020B048002004
:2044C000F0DDFFFF864C0020B84C0020AFFE0000208C0090E38B227F29787047388B401E8A
:2044E000388380B2002870479BF8020000287047FC214046FBF778B901203870404609F06E
:20450000FDB870472DE9F04104468846122740464FF6FE7188421646DFF8A85808D1A86976
:2045200050B30268100027D041462046904720E04FF6FF71884212D1A86938B1026810006D
:2045400004D0414620469047070005D03146204600F089FA07000FD12C706E700CE006F054
:204560002BFD48B10078A04205D13146404609F0C1F8074600E003273846BDE8F08110B58B
:2045800004462389E288A188608884B005F01CFE08B9022029E02088012106F03BFD08B9C2
:2045A000142022E0208806F046FD042812D1DFF8140881894FF6FF72914218BF112014D162
:2045C0002188818161888180A188C180E18801812189418100200290019020890090E3889E
:2045E000A2886188208805F007FF04B010BD70B50C46DFF8D4170978022918BF0129154643
:2046000001D1122070BD0DB9022070BD06F0D4FC060001D1142070BD1CB1307940F00200AD
:2046200030711022294606F1140008F0F2FE28697062002070BDF8B506000C4601D102209C
:20464000F2BD308806F0B8FC050001D11420F2BDDFF874070078022818BF012803D0287B25
:20466000082802D10CB11220F2BDDFF85877786908B11120F2BD2C2008F040FD786108B95E
:204680001320F2BD2C2200F0A3FA7869318841801C22311D001D08F0BCFE7969022008702B
:2046A000287B7969328808280CBF012000200B1DDFF81817097800F08BFF06461CB12146D6
:2046C000284601F047F90EB100F042FA3046F2BD38B504460D4606F06FFC08B9142032BD5C
:2046E0008DF8005000A9204601F06EF832BD38B5002298B101230624251815F8015C303DD6
:204700000A2D0BD203FB05220A25641E6B43E4B2002CF1D11046BDE8344001E0022032BD1C
:2047200030B505460C4685B0204606F045FC08B9122019E0DFF89806854228BF022013D20F
:204740001022002100A808F0DBFE280A8DF801008DF80050280C8DF802002146280E8DF823
:20476000030000A800F077FF05B030BD2DE9F0418046DFF854060078022814BF0128122078
:2047800082B00C4615461E462BD00DB9022028E0404606F011FC070008BF142021D0B86A4D
:2047A00008B108F09BFD1C21284608F0E3FD0100B96208BF132014D0387B082809D146B17F
:2047C000887E009001F112030A8A404601F0ECF800E00020397941F004010CB141F0020174
:2047E0003971BDE8F6812DE9F0410D4606F0E4FB04001ED0656200F0EEF9C5B205B9257822
:20480000666A94F80580102008F0C4FC070010D0D0203870062200207870A11D0920B87011
:2048200087F80380381D08F0F4FDFE60394628461EE0BDE8F0812DE9F04104460D4690461F
:204840001F460E2008F0A6FC06000FD0D020307006220020707041460C20B070B580B01DB9
:2048600008F0D7FD37733146204601E0BDE8F081BDE8F04108F0A8B8F0B5040087B051D0BF
:20488000A079DFF84055002828690CBF0826042608B9DFF840050778DFF83C05006820B10A
:2048A000416808001CBF00208847E07904F1080105F066FF217DE07105910246618A04917F
:2048C00004F10803218A0391E18902910196A18800913946E07800F063F8E07870B9172071
:2048E00003900122E0890290019604F108000090E379A188384606F008FBE070286908B14D
:2049000000F03EF9287868B1697800F0ACF848B1E378312B04D0A2882978184600F06EF83F
:204920000020287007B0F0BDE0B50021029101918189009143890289C188808805F0F4FC58
:2049400007BD70B505460026A88806F035FB18B10678A88806F006FBDFF86844207838B135
:20496000864205D1617800F07EF840B1002020702EB1AB79AA88A878314600F03FF86069FD
:2049800008B100F0E5F8A88806F055FB042802BFA888A189884204BF4FF6FF70A08170BD45
:2049A0002DE9F0410646884617461C46162008F0F1FB050020D0D02028706E700520A87025
:2049C000EF702CB106222146281D08F022FD04E006220021281D08F093FD069868812946C0
:2049E000079828730898E881099828820A9868820B98287540463BE7BDE8F081F8B50446A8
:204A00000D4616461F46082008F0C4FB48B1D02101704470062181708680877101462846C9
:204A2000DCE0F1BD2DE9F04180460D4616461F460C2008F0AFFB040013D0284606F0BCFA1C
:204A400008B9DFF890030078D021217084F801800721A170A580E6802781069961812146E0
:204A600006E7BDE8F08110B50C4606F0B9FA28B12146BDE81040408808F03CBE122010BD85
:204A80002DE9F84F0746894692461C46484606F093FA5FEA000B1EBFCA4D6969002955D0EA
:204AA0000A6A182002B134208A6A02B1143004B11C30496A01B1163080B208F06BFB060016
:204AC00044D0182200F084F800F085F85FEA000808BF9BF80080D020307077700A20B070C3
:204AE000A6F8049086F806A006F118076969086A38B1B7603846096A00F11C071C2208F0CB
:204B000088FC6969886A38B1F7603846896A00F11407142208F07DFC3CB13761384600F1F5
:204B20001C071C22214608F074FC6869416A29B177611622416A384608F06BFC31465FFA87
:204B400088F007F041FFBDE8F14F01E0BDE8F18F10B59C4C606990B1006A08B108F0BEFB30
:204B60006069406A08B108F0B9FB6069806A08B108F0B4FB606908F0B1FB0020606110BD2F
:204B800010B5904C206918B108F0A8FB0020206110BDF8B504460D46284606F00DFA06005E
:204BA00015D000F018F8070008BF3778062008F0F1FA06000BD0062200F00AF8D0203070FF
:204BC00074700E20B070B5803146F8B206E0F1BD002108F095BC262005F0C2BCBDE8F440BD
:204BE00007F0F2BE2DE9F84305460E4617469846304606F0E1F95FEA000921D0102008F032
:204C0000C9FA04001CD01022FFF7E2FFFFF7E3FF08B999F80000D021217065700F21A17016
:204C2000A680277284F80980C0B20899A1720999E1720A99E1602146BDE8F44307F0C4BEF5
:204C4000BDE8F1832DE9F0410746884606F0B4F9040022D00E2008F09DFA05001DD0FFF79B
:204C6000BAFF060008BF2678D0202870062200206870A11D0B20A870E81C08F0CAFB18F09E
:204C8000010118BF012129736F8118F0020118BF01216973F0B22946EAE5BDE8F0812DE9A1
:204CA000F14F90460D469946404606F085F907000A9EDDF82CA0DDF830B00D9C3ED09DF861
:204CC000000000283AD1387940F010005FEA49714CBF40F0020000F0FD00002E08BFBAF1E3
:204CE000000F08D1BBF1000F08BF002C03D100F0FB00387122E040F0040038713CB1206961
:204D000078621022214607F1140008F082FB3EB135B9B86A08B108F0E1FA1C2130460AE077
:204D2000BAF1000F0AD0012D08D1B86A08B108F0D5FA1C21504608F01DFBB862214D6869FA
:204D4000002839D06EB1006A20B91C2008F0D6F9696908626869006A18B11C22314608F0D0
:204D600058FBBBF1000F0ED06869406A20B9162008F0C4F9696948626869406A18B1162210
:204D8000594608F046FB74B16869806A20B9142008F0B4F9696988626869806A18B1142233
:204DA000214608F036FB9DF8000053464A46414601B0BDE8F04F63E6BDE8F18F0749086063
:204DC000704700009846002065460020F446002040420F0064460020F84600209048002048
:204DE0002DE9F04FC80BADF1140DC003039108BF002000F0EA83B24C207807F027FB061C60
:204E000000F0DF83AF4D296849B1B1F1FF3F06D0BC48007807F0D8FD4FF0FF30286030781D
:204E2000813800F0AD80401E40F0C883B78896F806B096F802A04FF000094FF00108384602
:204E4000401E6AD0401E47D0401E2FD0401E40F08B805FEA0B0025D0801E1CD0401E15D039
:204E6000801E0ED0401E06D00C383FD13089B17AFCF7D4F92EE0307AB17AF268FBF7BFFAA2
:204E800028E0307AF168FBF7EAFA23E03089F168FBF794FA1EE0B068B189B27B3369FBF791
:204EA00063FA17E0B068FBF735FB13E0B07970B1401F07D0401E19D1307AB17AF26805F085
:204EC000EDFC07E0307AF16805F028FD02E0B06805F042FD04461EE0B0794C46103816D086
:204EE000C01E0FD0401E09D0401E01D04046F1E73089B17AF268FEF701FBEBE7B06805F023
:204F000060FE07E03089B17A05F055FE02E0307A05F04EFEC846254624E0B0794D46001FFB
:204F20001FD00C381AD0401E11D0401E0CD0401E012807D9801E14D0801E18BF454611D110
:204F40000A2008E002250DE006F08EF803E03089B17A06F05FF8E071C14603E0307A06F0C0
:204F6000E9F8C8462C4600E04446304608F0D6F9B8F1000F00F025834D46CDF810A015E3D9
:204F8000B078B78896F806B03F2300250490B3EBA72F40F0CA81C7F3C210002800F0C58172
:204FA000C7F3C2103246002800F0BD81401E00F06381401E00F04381401E00F02D81401EF9
:204FC00051D0401E40F0AF8107F07F00401E22D0401E18D0401E43D0401E04D0401E34D0E1
:204FE000401E22D01FE0BC4894680088002C37D0BC4921609223A0807322A37124212281BB
:20500000284661812DE0107A517A08F0A5F938BB08F07AFA25E0107A517A08F09DF9F8B950
:2050200008F070FA1DE001201BE04FF6FF70ADF80800FEF783FDADF8080002A90222E01DA6
:2050400008F0E7F9022500200BE007F0FBFD0425E071010A2172030C6372020EA272F2E75E
:20506000022004467DE007F07F013046112903D93039082914D956E1DFE811F05100550137
:205080005501C80055015501C200BA00B6005501AF00A900A3009D0096008E0088008400F6
:2050A000DFE801F032126A660563616161C0007A01F01AFE0028019055D001A904221AE0AE
:2050C00040470020184800204FF6FF780089ADF80A80FF2807DA262805D0272803DA05F0E9
:2050E0003FFAADF80A00BDF80A10404688423AD00DF10A010222E41D1546204608F089F936
:2051000000204FE2B2480020018926292BD0272929DA0A464189104605F014FA42E2447AA8
:20512000D0F80CA0D0F81090D0F814802146491E04D0C91E18BFB1F1080111D1007A214669
:2051400005F017FA041C0CD150464946424605F024FA01F0DDFD06F079FD03F0C7F800E0C3
:20516000022420461EE202201CE201F0C7FD19E2806801F079FD15E28268C168104607F02D
:20518000F1F90FE28068FFF7FAF90BE20289817A1046FFF79DFA05E20489817AC268037CF5
:2051A0002046FFF7E3FAFDE10389817AC2681846FFF71DFAF6E10289817A104606F02AFDEC
:2051C000F0E1C26801891046FFF791FAEAE18268C1681046FFF72FFAE4E1037A4189027B97
:2051E0001846FFF78FF9DDE1007A01F017FDD9E1047A417A827AC368204601F0D8FCD1E19F
:20520000027AC168104601F07FFCCBE1027AC168104605F0E1F9C5E13346188907F07F0477
:205220001B3C07D0A41E7ED1D9681A7C5B7CFEF7BFF9B7E1D9681A7CFEF7E7F9B2E1108964
:20524000D16807F07F02521E13D00A3A0ED0921E09D0921F04D0921F65D106F04EFBA1E172
:2052600006F038FB9EE106F007FB9BE106F0F6FA98E106F0A0FA95E107F07F0070280CDCB7
:20528000702831D0801F4AD00C3842D0801E3AD0401E32D0401E2BD045E071381ED0401EEB
:2052A00015D0401E0ED0401E06D0401E3BD11089D16804F099FA75E11089917AD26804F0AE
:2052C00060FA6FE11089D16804F043FA6AE1107A518904F02AFA65E19CE00100906804F0AB
:2052E00001FA5FE100010200906804F08DFA59E11089518904F00EFB54E11089917A92895F
:2053000004F0E2FA4EE110895189928904F0B1FA48E11089D168127C04F02DFB42E1108900
:2053200004F0E5FA3EE101203CE142F20700B84236DBB84200F0098141F20200B8421BDB5E
:20534000B84200F01681A7F21D40002800F02781A0F2E470002800F01E81801E00F0188152
:205360002A3800F01081363800F00981A0F29E30002800F0018151E0401C381A00F0F68023
:20538000801F00F0F080B0F57F7000F0E880A0F6FC30002800F0DF80801E00F0D9803DE0E5
:2053A0001030B84216DBB84200F0B2800838381A00F0C880401E00F0C280401E00F0BA80C4
:2053C000401E00F0B280C01E00F0AB80401E00F0A48023E0401D381A00F09780401E00F0DB
:2053E0009080401E00F08780401E00F081804DF6E231401A1F2811D8DFE800F0767210105A
:205400006D6965605D5956524E4B10104710433E3910342E102A25211D1018120124C2E0B9
:20542000B068F168326904F008FFBBE0307AB17A08F05CF9B6E0307A04F0EFFFB2E030893B
:2054400005F002F8AEE0307A718908F04BF9A9E0307A08F043F9A5E03089B17AB28905F0EF
:2054600005F89FE0307A718908F034F99AE03089F16808F02BF995E03089B17A08F022F9D3
:2054800090E0308908F01AF98CE0307A08F012F988E008F00BF985E0308908F003F981E0E8
:2054A000B06808F0FBF87DE008F0F4F87AE0307A08F0ECF876E008F0E5F873E0307AB17A75
:2054C00008F0DCF86EE0307A08F0D4F86AE0B06808F0CCF866E0B068F16808F0C3F861E07B
:2054E000307A08F0BBF85DE0307A08F0B3F859E008F0ACF856E0307A717AB27A04F056FFB8
:2055000050E0307A04F05BFF4CE008F09BF849E0B068F16808F092F844E0308904F031FF8F
:2055200040E0308908F086F83CE0307AF16808F07DF837E0307AF16808F074F832E008F008
:205540006DF82FE008F066F82CE008F05FF829E008F058F826E0B06804F08AFF22E030897F
:2055600008F04CF81EE008F045F81BE008F03EF818E004F058FE15E004F096FF12E0B068C9
:2055800004F026FF0EE03089B17A08F02BF809E004F038FE06E0B06808F020F802E0308949
:2055A00008F018F80446304607F0B8FE00950498234639465A4607F063FA02E0304607F01A
:2055C000ADFE039880F4004080B205B0BDE8F08F2DE9F843DFF80C570446286889469046BC
:2055E0001E46002708B1112033E05EB1212004F0B7FF317E814205D3222004F0B1FF317E4A
:20560000884201D2022024E0782007F077FD286008B913201DE07822002107F071FF296898
:205620004F7028680470286880F802902868011DA1F800804E60CF6180F8247014B100F0A7
:20564000C0F907462968012048700FB100F0E0FA3846BDE8F28338B5DFF888562B6800245F
:2056600033B193F82420022A1CBF032A042A01D0122032BD9A888A4201D0022032BD01460C
:20568000102203F10C0007F0C4FE28681021353000F0DCFC286800F1250200F135010C3026
:2056A00000F00DF92868417802781AB103290DD1022107E0042902D10221417006E003296C
:2056C00004D10521417000F092F90446204632BDDFF8101688607047DFF808164860704714
:2056E000DFF80026126832B19288824203D1012908BF00F08DBA70471720AEE270B586B09D
:20570000044600208DF80000A0680578691E0A2939D8DFE801F006060D1115191D212529AE
:205720002D0001A904F0DDFB122824D106202BE001A904F049FC1EE001A904F061FC1AE090
:2057400001A904F074FC16E001A904F088FC12E001A904F0A1FC0EE001A904F0C7FC0AE0BD
:2057600001A904F0CEFC06E001A904F0E1FC02E001A904F0F6FCD8B9608805F01DFC07263A
:2057800028B9082612E007208DF8000013E0027BDFF85015082A0CBF8968496831B10B68BC
:2057A000190003D001AA2946984706468DF800609DF8000020B1608800A900F005F801E00E
:2057C00000F060FB06B070BD38B50C46DFF818352246022104F0D3FC0546207800F03DFAE0
:2057E000284632BD70B5DFF8FC440546206800280E463DD08188A9423AD1417806292FD1CD
:20580000017809B381684969026ACB0704D5137BDB0748BF072113D4C1F34003002B1FBF1B
:20582000D368C3F34003002B092109D1C1F3800100291EBFD168C1F38001002902D00B2135
:20584000417007E0A06800E0606818B14068010018BF804720684078122816D1002004E08B
:20586000112905D106B13226304600F0F6F90CE03EB9284605F0A0FB18B1017941F010014E
:20588000017129463046FFF784F9012070BD10B5DFF85044206888B1007800280CBF6068CC
:2058A000A06818B14068010018BF804720684078122803D1BDE810400020CEE110BD2DE9DB
:2058C000F34FDFF8206430688DB0904608B912203DE0808805F070FB050008BF142036D002
:2058E00009A800F0E2F93068017871B1D0F8209004F09BFF0446002004F09AFF95F805A0CA
:2059000009AE074605F1060B0BE0066A04F08DFF8246002004F08CFF6C790DF12409834661
