:200000005C400020B97D000001CA011001CA011001CA011001CA011001CA011001CA0110C6
:1C00200001CA011001CA011001CA011001CA011001CA011001CA01103FCA011082
:20003C0000008001100082FFFDFF58003AFFBFF3FFFFFFFFFFFFFFFFFFFFFFFFFFFFFFFF63
:20005C00FFFFFFFFFFFFFFFFFFFFFFFFFFFFFFFFFFFFFFC5FFFFFFFFC5FFFFFFC5C5C5FFC6
:18007C00C5C5C5FF00000000FFFFFFFFFFFFFFFFFFFFFFFFFFFFFFFF2E
:200100003C000000000000000000000034010000000000000000000001000000000000006D
:1C01200000000000000000000000000001000000000000000800000000000000BA
:20013C00340000000000000000000000680100000000000000000000010000000000000005
:14015C00010000000000000000000000080000000000000086
:2001700030000000000000000000000098010000040000000000000001000000FFFFFFFFA5
:10019000FF00000001000000080000000000000057
:2001A0002C0000000000000000000000C4010000040000000000000001000000FFFFFFFF4D
:0C01C000FFFFFFFF08000000000000002F
:2001CC0034050000E401000099A1011095A70110A5C2011009B2011045B80110000000000B
:0801EC00000000002E000000DD
:2001F400280000000000000000000000140200000000000000000000FFFFFFFF00000000B1
:080214000800000000000000DA
:20021C00300500003002000069C201106DC101101FC2011095BA011000000000000000008E
:04023C00300000008E
:20024000300500005402000075C20110A9B601109DBF011049B601100000000000000000DE
:040260003100000069
:200264002400000000000000000000008002000000000000000000000000000008000000CC
:040284000000000076
:20028800240000000000000000000000A40200000000000000000000000000000800000084
:0402A8000000000052
:2002AC00240000000000000000000000C8020000000000000100000000000000080000003B
:0402CC00000000002E
:2002D000000000009022002004000000000000000000000020000000700100003000000077
:2002F0001C020000982200200400000000000000000000000C00000030040000180000009A
:2003100040020000A02200200400000000000000000000002400000048040000180000001D
:2003300000000000A822002004000000000000000000000010000000A00100002C000000E2
:20035000CC010000B022002004000000000000000000000020000000640200002400000020
:20037000FFFFFFFFB82200200400000000000000000000002800000088020000240000009D
:20039000FFFFFFFFC0220020040000000000000000000000580000003C0100003400000082
:2003B000FFFFFFFFC822002004000000000000000000000010000000600400001800000097
:2003D000FFFFFFFFD02200200400000000000000000000001C000000AC020000240000000D
:2003F000FFFFFFFFD822002004000000000000000000000038000000F4010000280000007E
:20041000FFFFFFFFE022002004000000000000000000000054000000000100003C00000019
:1804300018000000000000000000000040040000080000000000000050
:1804480018000000000000000000000058040000080000000000000020
:18046000180000000000000000000000700400000800000000000000F0
:080478000100000084A5000052
:040484000100000073
:0404880000000C0064
:04048C0000000D005F
:040490003200000036
:040494000200000062
:04049800B020002070
:04049C00000200005A
:0404A0000000000058
:0404A40001CA011078
:0404A8000000000050
:0404AC00000000004C
:0404B0000800000040
:0404B4000000200024
:0404B800E01F002021
:0404BC00010000003B
:0404C000EC2100200B
:0404C400080000002C
:0404C8000000000030
:0404CC00000000002C
:0404D0000000000028
:0404D4000000000024
:0404D8000000000020
:0404DC00010000001B
:0404E00010210020C7
:0404E400060000000E
:0404E800010000000F
:0404EC00041F0020C9
:0404F0000000000008
:0404F4000000000004
:0404F80000020000FE
:0404FC0000000000FC
:020502002A00CD
:020504000100F4
:020506002500CE
:020508003000C1
:02050A003100BE
:02050C002E00BF
:02050E000100EA
:0105100001E9
:0805140003000000D4A4000064
:08051C000000000000000000D7
:0405240000000100D2
:0405280000000300CC
:04052C0087C401106F
:04053000380500008A
:040534003805000086
:0405380000000000BF
:04053C00800000003B
:040540008000000037
:0405440000000000B3
:04054800EC21002082
:04054C00839900008F
:040550002000000087
:0405540008A20000F9
:040558002CA10000D2
:04055C000DC30110BA
:04056000737D0000A7
:040564001F910000E3
:0405680099C801101D
:04056C009BC8011017
:040570000000000087
:040574005BA4000084
:0405780044A000009B
:04057C005CA000007F
:040580002CA00000AB
:0205840008006D
:0205860009006A
:02058800010070
:02058A0000006F
:01058C00016D
:040590000000000067
:040594000000000063
:04059800000000005F
:04059C00000000005B
:0405A000BD97000003
:0405A40009810000C9
:0405A8006592000058
:0405AC009184000036
:0405B000516E000088
:0405B400E5850000D9
:0405B8005961000085
:0405BC004D9400005A
:0405C00021700000A6
:0405C40011C8011049
:0405C80021C8011035
:0405CC000800000023
:0405D0002400000003
:0405D400180000000B
:0405D80028000000F7
:0405DC0020000000FB
:0405E0003C000000DB
:0405E4000C00000007
:0405E80034000000DB
:2005EC002DE9F04FADF1FC0D05F0E2FAC94D05F1280005F1780105F005FCC74FE8603946AC
:20060C0009F032FB0820ADF828000120ADF82A000AA808F083FABDF82C0068800C98A86027
:20062C0005F1340009F032FA286104210091BB494FF47A72002305F1940007F04BFA1F20C5
:20064C00012108F06BF801208DF8D800ADF898000821ADF89A1000208DF8D9004FF4487164
:20066C00ADF89C1036AAADF89E0064200121ADF8A00040F2053002F0A9FC40F20630022186
:20068C0026AA02F0A3FC4FF442701B2105F15A0202F09CFC05F14C0440F207300E2122469A
:2006AC0002F094FC4FF4447001210DF1D90202F08DFC40F2113002210DF19A0202F086FC9B
:2006CC0040F21230022127AA02F080FC40F2133002210DF19E0202F079FC4FF44570022180
:2006EC0028AA02F073FCBF49032007F053FEBE4E303C0620A021746308F010F80720A0212A
:20070C0008F00CF80820A02108F008F80920A02108F004F8032008F01FF9042008F01CF9AE
:20072C00B248B34A132107F027FDB24C0120112104F1110204F092FE02200521224604F0E6
:20074C008DFE05202246014604F088FE0320132104F1340204F082FE04200C21621D04F0FA
:20076C007DFE0620122104F1220204F077FEA24C00204421207006F0A1F8B146002840D056
:20078C009E4D1F200222294609F0A3F9002836D029880806000C40EA212078282ED11020C8
:2007AC00288029460220024608F078FC38B302202946024609F08DF908B329880806000C77
:2007CC0040EA2120B0F5805F18D10020288029460220024608F062FC88B10220294602462C
:2007EC0009F077F958B129880806000C50EA2120288004D109F0A6F9012003E0288009F07B
:20080C00A1F90020217810B141F0010020700020432106F053F8FE200DF1A201022209F055
:20082C0058F918B3BDF8A200BDF8A21045F249470006000C40EA21208742ADF8A20015D198
:20084C00FF200DF1A201022209F043F970B1BDF8A200BDF8A2100006000C40EA2120B0F572
:20086C00805FADF8A20008BF012700D0002709F069F9207817B140F002002070772100202B
:20088C0006F01CF800284DD0D0200DF1DA01012209F01FF9002843D09DF8DA0058283FD1C6
:2008AC00F5200DF1DA01012209F013F9002837D09DF8DA00002833D155208DF8DA000DF17A
:2008CC00DA010122F42008F0E9FB48B3F4200DF1DA01012209F0FDF810B39DF8DA00552876
:2008EC001ED1B6208DF8DA000DF1DA010122E02008F0D4FBA0B1F4200DF1DA01012209F0AB
:20090C00E8F868B19DF8DA0050B909F01BF9012009E0C04620050020D1600000B59600007C
:20092C0009F010F90020217810B141F00800207007F05CF818B1207840F00400207006F000
:20094C000DFB18B1207840F01000207008F0D8FF2B4DC0B107F06EFA01200C2105F0AEFF4B
:20096C00291DFF20087001223B91002009F0B1F830B12879482803D109F0E4F8012007E03A
:20098C0009F0E0F803E009F0DDF8281D3B900020217810B141F02000207005F0E9F9061C65
:2009AC0001D005F03BFE207816B140F0400020707F2814BF0A200F20052107F0D5F907F018
:2009CC00AFF9002860D105F0D3F95FEA00085BD00024204606F0D5F904F58054E00CF8D0FE
:2009EC0000264AE07B9C0000E40900203C16002068A40000849F0000983A0020203B002069
:200A0C001820002006F5003006F0BBF95FEA000831D0DFF808A3374600240AF5847A504695
:200A2C0039464FF4807205F029F8A01900F5003B4FF480715246584605F064FE5FEA0008E5
:200A4C0013D058464FF48071524606F0A7FFB8789AF802104FF00008884206D1F8789AF8E3
:200A6C000310884208BF4FF0010804F5807407F58077200BD3D006F58056700C08BFB8F113
:200A8C00010FBFD005F0CAFD08200427ADF8340099F80060ADF83670B0000E900DA808F08C
:200AAC003DF800280CBF0F980020954EB06038B108F0F6FB934A06F12000082107F05CFB0B
:200ACC007068914910B90C46103474600C4600204FF47A7720818D49E78006460E7033465E
:200AEC0023703246227105F1280005F11C0105F089F98749686109F0B7F83046A86103F0F1
:200B0C0009FD18B108F0A2F98248A86102206421012208F075FC374600977F49E38804F125
:200B2C0028004FF47A7206F0D5FF04260820ADF8400099F80030ADF842609800119010A858
:200B4C0007F0ECFF00280CBF1298381CCA4EB06038B108F0A5FBC94A06F10C00082107F0D7
:200B6C000BFB7068DFF818A310B95046001D70604FF44870AAF8020038468AF8010007F016
:200B8C00BBFC02205021012208F0BEFD384608F054F8384608F051F839460091C049BAF8DD
:200BAC0002300AF10800642206F094FF04260820ADF84C0099F80070ADF84E60B8001490F2
:200BCC0013A807F0ABFF00280CBF15980020CA4E706038B108F064FBC84A304605210830DF
:200BEC0007F0CAFAC64E0020706030700746B7603B46F3603A46326108F000FA04270820FA
:200C0C00ADF8580099F80030ADF85A709800179016A807F083FF00280CBF18980020CB494E
:200C2C008846886038B108F03BFBCE4A08F10C00052107F0A1FACC4F07F10800C8F8040027
:200C4C0000233B701846787007F086FB06F07EFE04270820ADF8640099F80030ADF86670F2
:200C6C0098001A9019A807F059FF00280CBF1B980020BE49886058B108F012FB00204421CE
:200C8C0005F0ECFFB948CC4A0821243007F074FA0820ADF8700099F80030ADF87270980052
:200CAC001D901CA807F03AFF002814BF00201E98C2498B46886038B108F0F2FAC04A0BF11F
:200CCC001C00082107F058FABE48CBF8040007F0F7FFBD49B046886080B307F0F1FFBA49BF
:200CEC00C860E8B908460821ADF80810806803900521ADF80A1002A807F010FF1EE0C046D7
:200D0C00BC190020A4A40000B81E0020303B002021990000AD9300009D9600002005002097
:200D2C000846806808F0BCFAA748C06808F0B8FAA548CF4A0921183007F01EFACD48A2497B
:200D4C00406ACC4F086107F1400008F09FFE394699F80170486137BB99F810A099F802603C
:200D6C0008461830C9F83000182008F0B9FA071C19D00421002208F0E1FD504608F0DCF971
:200D8C0038727E720020B87209F14A03FB6009F15A023A6109F12C01796108F0B1FACC4A16
:200DAC00394607F015FB0C2008F09AFA071C0AD00121042208F094FE0020B86008F0A0FA50
:200DCC00394607F0D5FFAB48C449C06808F04CFFC14AC04F3B6841F2883642F21071B6FB3E
:200DEC00F3F03990CA483A9302F10806B1FBF3F33D9681463C930820ADF810000A27ADF8AD
:200E0C0012704FF0FF36059604A807F087FE002840F0B685002022900827ADF87C700926B9
:200E2C00ADF87E601FA807F079FE219E0028229640F02183BDF8800010280ED18D48BDF8A5
:200E4C0082104088884208D131460878B02804D101F10800097908F03FFB2298002800F065
:200E6C000A833846ADF8180007960327ADF81A7006A807F053FEFEE2AC1C0020B0A4000096
:200E8C00702100207B480069064609F013F848B9304609F00BF8876808F0D6FB384602E08E
:200EAC00CD93000000200028074600F0E4823E78761E00F03682761E40F0DA827878BE78A3
:200ECC00401E00F0F381401E00F0A281801E00F03B81401E00F0F680401E00F0AB80401EEE
:200EEC0036D0801E40F0C482012E0BD0022E40F0BF8206F061FEBBE2601E0020C8A4000025
:200F0C0018220020C5492CA80A6849680260022641609DF8B1109DF8B0009DF8B3209DF8A3
:200F2C00B530009600EB01209DF8B7609DF8B21001EB02219DF8B42002EB03229DF8B63016
:200F4C0003EB062306F07AFD92E2C046A81D0020012E0DD0002E40D1C549002008F076FCBF
:200F6C003BE0C04674A400008020002018190020C549012008F06AFC08460078022825D0A9
:200F8C00BB49002007F066FC3A48C0680A210022064607F045FF002230460F2107F040FF4C
:200FAC00B948406808F07EFF3248C0681521002207F036FF11E0C046BCA400005C1A0020F4
:200FCC005CA40000F82200207018002008F0CCFD4870A749002007F03DFCAB4800780128D6
:200FEC0040F046822348A849C06849780646490834BF002201220A2107F012FFA2484078FE
:20100C00800834BF0022012230460F2107F008FF9D499D4849784068C90808D208F042FF48
:20102C001448C0681521002207F0FAFE20E208F035FF1DE2761E02D0761E36D018E208F0BA
:20104C0093FD000925D3BD480078FF2824D001200DF1DB0108F05EF89DF8DB0060B19DF8FC
:20106C00DB0001281DD1B5490120087001460CE0D8A0000020050020B04900200622087032
:20108C00014608F029FB4FF0FF31AD4804F000FC07E0AA49FF2008700120FF21024608F09B
:2010AC001BFB002007F0E6FFE2E102200DF1DB0108F030F8A14E9DF8DB10480000EBC100D0
:2010CC00B080D5E1761E0BD0761E35D0D0E1C046819C000080A5000006220020D1600000A4
:2010EC0008F042FD80081ED3C6480078FF281DD0012037A908F0E4F89DF8DC0050B900202B
:20110C000422014608F0F4FA4FF0FF3103E0C046042200200121BC4804F0BAFB9DF8DC0092
:20112C00B8490870A4E1B749FF2008700120FF21024608F0DDFA9BE1022037A908F0C0F888
:20114C00B04E9DF8DC10B8E7761E02D0761E52D08EE108F009FD400940D32089FF283FD0A1
:20116C00012029A907F090FBBDF8A40010F07F0F28D0BDF8A4002081022004F0CDF908F041
:20118C00BFFB28B3399808F085FE08F0B9FB80B10120682105F092FB68B19C491C200122FC
:2011AC0008F097FC08F0CEFCE878C0F3C100A87002E008F0C7FC0020BDF8A41041EA002079
:2011CC00208105E0BDF8A4002081002004F0A4F98F4A0120022105F0A5FF06E0FF20208176
:2011EC000120FF21022208F00BF900201222014608F006F93CE102200DF1DD0107F044FB9F
:20120C009DF8DD00410001EBC001C448E1804AE0761E05D0761E39D02AE1C0466E1A00200C
:20122C0008F0A2FCC00825D3BE480678FF2E24D001200DF1DE0108F0A3F89DF8DE0060B98A
:20124C0096B1B74808F03DFD002007F0F6FC00200222014608F058FA06E02EB9012007F047
:20126C00ECFCAF4808F02BFD9DF8DE00AD4958E781200020AB49FF2008700120FF210246E6
:20128C0008F042FAF4E0C0468020002002200DF1DE0108F075F89DF8DE00410001EBC001AF
:2012AC009F48A04E718006F01BF9E1E0761E02D0761E2DD0DCE008F057FC40081CD3BE4856
:2012CC000078FF281BD001200DF1DF0108F048F89DF8DF0038B900200422014608F020FA3D
:2012EC004FF0FF3100E00121CF4804F0D1FA9DF8DF00B149087007E0AF49FF20087001201E
:20130C00FF21024608F00CFA002006F097FEAFE002200DF1DF0108F023F8A74E9DF8DF1095
:20132C00CBE67E78701E75D0401E53D0801E012864D9801E06D0801E57D097E0700D002055
:20134C00800D0020CC4808F04FFB10B9CA4808F0B6FCCA48C0680A210022824607F060FD56
:20136C00002250460F2107F05BFD00225046152107F056FD40F216300DF1A60103F038F8B2
:20138C0040F213302AA903F033F84FF446700DF1AA0103F02DF89DF8A6009DF8A820BDF8D4
:2013AC00A6308DF8C800BDF8A8108DF8CA2018129DF8AA308DF8C90008128DF8CB00BDF81C
:2013CC00AA208DF8CC3010128DF8CD0032A807F001FE4BE0A84808F007FB10B9A64808F0AE
:2013EC006EFC002008F0C0F940E008F091F8A348C0680A21012207F013FD37E008F088F80E
:20140C0034E0C04628100020381000201B200020C01E00200F20052106F0A6FC4FF44170AC
:20142C002EA902F0E5FF9DF8B9308DF8C1309DF8BA208DF8C22000218DF8C4109DF8B80062
:20144C008DF8C0000B469DF8BD208DF8C33000208DF8C7209DF8BC109DF8BB308DF8C61038
:20146C0030AA8DF8C530082103F0F8FF83480670384608F0DDF88148006908F01BFD002803
:20148C003FF400AD98F8000098F80110884269D007F0B4FD794998F800000978022903D1B2
:2014AC0008F062F998F8000098F8012091081ED381081CD271490978062912D1D8F80C3032
:2014CC00D8F810103A9F4FF47A76C91A794340F6B837B1FBF6F18F4209DA41F270738B4216
:2014EC0005DD05F0FBFE98F8000098F8012002F00301032936D100F00301032932D03A99B1
:20150C00D8F81060D8F80C30424092080CD3F61A4FF47A727143B1FBF2F10FE0E01E0020E9
:20152C007821002070210020D8F80430D8F808204FF47A77D21A5143B1FBF7F141F27072DC
:20154C008A420FDA15200A2106F00EFC06F0E8FB30B1BB4B4FF400304FF4F83100229847CA
:20156C0098F8000088F80100B6484778002F33D00020452105F0A2F930B301200DF1AE0198
:20158C00022208F0A6FAC8B1BDF8AE006FF30E00B0F5004F12D100200DF1AE01022208F077
:2015AC0098FA58B1BDF8AE00BDF8AE10000240EA2120ADF8AC0005E0E01200202BA8022103
:2015CC0008F0B2F908F0BEFA002002212BAA06F045F99C49002048709B480778002F00F022
:2015EC00CF81208910F07F0F00F07F0A00F0C58100208DF8E00008F083F9B8B1012068219D
:20160C0005F05CF950B13A2038A9012208F061FA10B900208DF8E00008F094FA9DF8E01069
:20162C009DF8E000A17005E0F012002008F08AFA0020A070C04922780F7817B9022A40F00F
:20164C0008812179C30942D240084FD308F058F9B0B10120682105F031F998B1B9494320F0
:20166C00062208F036FA074608F06CFA57B1B54808F028F906E0C046B4050020200500203B
:20168C0008F060FA08F03CF988B10120682105F015F970B1AC493B20062208F01AFA0746E7
:2016AC0008F050FA2FB1A84808F00CF901E008F049FAE778E088002F08BF227816D000278F
:2016CC00E77022784FF47A7191FBF0F009E0491CC8B20228207109D1E0884FF47A71B1FBD4
:2016EC00F0F001B2480000EBC100E06092490020022A087040F0AD802089C009C0F0A980D0
:20170C000620687008F0FCF8002800F09F80002068706821012005F0D1F822200DF1E1011A
:20172C0001228DF8E100372007F0B8FC08B90520687008F007FA6F78002F40F089800120EB
:20174C000C2105F0BBF802200DF1E101012208F0C0F900283ED09DF8E100400838D30320B0
:20176C0034A9072208F0B5F980B39DF8D60000092AD2744F9DF8D1109DF8D0009DF8D320E8
:20178C009DF8D2609DF8D53040EA012000B246EA02219DF8D460B88109B246EA0322B5F9CC
:2017AC000860B5F90A30F98112B270433A8200123E46B881B5F90C705943334608127A433B
:2017CC00F0811012188207E0032004E0042002E0022000E00120687011208DF8E1000DF14C
:2017EC00E10101220A2007F059FC08F0ABF96F78052F20D067B308F083F838B306F01AFB38
:20180C0030B301200C2105F059F808B301203B99287101220B2007F041FC3C9808F03AFB79
:20182C002878C00912D311203B99287101220A2007F034FC0AE00020E060FF2727700EE047
:20184C0001F0010070210020303B002008F07AF92278E768002F79D1012A00F08E80002038
:20186C0020710127277002F055FE002800F08580667808F045F8002860D03846682105F043
:20188C001DF8002879D009203B9928713A466B2007F004FC002851D007203B9928713A46C1
:2018AC006C2007F0FBFB002848D038463B9928713A461D2007F0F2FB00283FD040203B996C
:2018CC0028713A46382007F0E9FB002836D0C0203B9928713A46692007F0E0FB00282DD035
:2018EC003B992E711F203A4607F0D8FB30B306203B9928713A461E2007F0D0FBF0B1292000
:20190C003B9928713A466B2007F0C8FBB0B19D491C203A4607F0C2FB80B13B993A203A46F3
:20192C0008F0D7F808F00EF9002028709049686907F060FA21E0C046313B002008F002F99C
:20194C001BE0C046CC1E0020D21E0020022A09D0022020700027277102F0DCFD10B15046C8
:20196C0003F0ECF92089000A02D3E068401EE0608B4A0020122105F0D5FB834900200870C4
:20198C0082488088C10821D3804920F004000F4688803878062818BF022804D17C4808F002
:2019AC008EF93846007806280AD17549724A7148784F0090B868082304F0AEF873480078F3
:2019CC00022803D10F20012106F0CEF96F48406908F070FA00287FF40EAA6C48406908F085
:2019EC0065FA0746387A012807D0022840F0BC807889F96801F00CFCB6E0B7F80AB0FE6827
:201A0C0004F0B6F908B3644A4FF4F020102105F0C5FF04F003FEB9F80800B9F80630ADF837
:201A2C008E003D99ADF88C30096824AA1160AA228DF89720B9F80E008DF8950099F8103073
:201A4C008DF8963001128DF89410544BF179B0791A4600EB01208010988000215180B07992
:201A6C00F17900EB01208310B3F5005F44DC002B42D0B3882BB1B188BDF88C2000208A4250
:201A8C0000DA0120C0B3717B307B4FF6FF7306F1040A00EB0120834214BF800000203F49AD
:201AAC004861000BC88004F063F93B4B89F800007178307800EB01201880B078F1781A46A1
:201ACC0000EB01205080307B717B00EB0120A9F80E00B0880AF10403A9F80600F0883D9A9C
:201AEC00A9F8080019681160B07B0021A9F81000584605F0D7F937E028488168584607F0DA
:201B0C004BFF40082ED358460821002207F0D6FC0646099636B31948204A092107F022FF93
:201B2C0008224089ADF82220ADF820009DF88C303370BDF88C100998091241709DF88E1015
:201B4C008170BDF88E1024AA0912C1701168061D5846316008A907F005FD18B108A81B21F1
:201B6C0007F0BAFC07F07CFE384607F061FD2DE707000680A15E00003C1900208818002093
:201B8C00291900201B200020303B002020050020B405002018190020062200207018002092
:201BAC00CC1E00202DE9F84F044640F294214FF0010A41F21000C4F22231C4F20900C0F874
:201BCC0000A0086810B908680028FAD046F2000043F6B477C021C4F20C00C5F20007016060
:201BEC00D7F8008057F8041C46F25620C4F20800890806D257F8081C090C41F0F00101702B
:201C0C0001E07221017041F2B821C5F200010968C1F304611629A8BF20393A681217531850
:201C2C005B1C13F10A0FB8BF6FF0090300254FEAD8624FEA986103F01F03C4F2203582F0C6
:201C4C000102002C43F4F85381F00101038302F001022A6001F00101A96041F25035C5F2E4
:201C6C0000056FD02968C1F38360C1F38F265FEA984164D248F30721002927D54A42B1F175
:201C8C00FF3F4FEA620215DA760805D1400806BF504656464FF6FF76760801F1010105D1D9
:201CAC00400806BF504656464FF6FF76521E01F10101E9D15FEA582208D3760805D14008C7
:201CCC0006BF504656464FF6FF76491C002936DD02294FEA610E01F001091EDB4FF6FF7C1F
:201CEC00760046F00106B44507D2400040F001000F2892BF56460F206646760046F0010630
:201D0C00B44507D2400040F001000F2892BF56460F206646BEF1010EE2D1B9F1000F0EDD60
:201D2C0076004FF6FF7146F00106B14207D2400040F001000F2892BF56460F200E1C46EA45
:201D4C00004603E040F6FF76C0F20F0607F0EDFE0021002808BF514648F20009C4F20C0945
:201D6C00D9F8000018B9D9F800000028F8D04AF2080BC4F20C0BCBF81060C9F800A009B18A
:201D8C0007F0D9FE002C08BFD82107D029682868C1F3870100F0030041EA002188B2009040
:201DAC0040F2FF3200232C214AF20000C4F20C0005F05EF93CB141F27C30C5F2000000680F
:201DCC00C0F30D0501E040F2FF3507F0AEFE0021002808BF5146D9F8000018B9D9F800002E
:201DEC000028F8D0CBF81450C9F800A009B107F0A2FE002C04BF0025C6F688050CD041F2A2
:201E0C007430C5F2000001684FF6FC45C0F2FC0501F07C400D40054307F087FE00210028B2
:201E2C0008BF5146D9F8000018B9D9F800000028F8D0CBF80C50C9F800A009B107F07BFE2B
:201E4C00002C04BF47F28A65C0F2680509D041F27030C5F20000006801040D0C00F47C00E7
:201E6C00054307F062FE0021002808BF5146D9F8000018B9D9F800000028F8D0CBF8085092
:201E8C00C9F800A009B107F056FE002C33D041F27830C5F20000056857F8042CC5F3034127
:201EAC00C5F30350520816D243F6AC72C5F200021268130510EB237003D4102802DB0F207E
:201ECC0000E00020120411EB227103D4102902DB0F2100E0002141EA001105F47F4005F04A
:201EEC00FF02222C40EA014042EA000207D305F08045154304E043F62772C0F271021546CC
:201F0C0007F013FE0021002808BF5146D9F8000018B9D9F800000028F8D0CBF80450C9F8CB
:201F2C0000A009B107F007FE222C07D341F28C30C5F200000068C0F3007000E050464AF234
:201F4C0040064000222CC4F20C0640F0200086F8090107D341F28C30C5F200000068C0F366
:201F6C00407000E0504640F01000202C86F8090138BF00250AD341F29830C5F20000016807
:201F8C00C1F38455C80C00F44070054307F0CDFD0021002808BF5146D9F8000018B9D9F80D
:201FAC0000000028F8D0CBF82050C9F800A009B107F0C1FD202C07D341F29830C5F200004A
:201FCC000068C0F3015000E000204000222C40F0600086F80C0107D341F28C30C5F2000060
:201FEC000068C0F3C06000E00020C000222C40F0800086F8010107D341F28C30C5F20000DC
:20200C000068C0F3455000E000208000202C40F47C40A6F89C013CBF48F20005C4F23F05D9
:20202C000ED341F29830C5F2000000680503A90D890505F47C1500F00F000D4345EA003510
:20204C0007F073FD0021002808BF5146D9F8000018B9D9F800000028F8D0CBF80050C9F82F
:20206C0000A009B107F067FD44204FF0880E86F8C50086F8C7E03CB141F28C30C5F200006B
:20208C000068C0F3C14000E0002040F03001C8F3815086F8C81070B3401E06D0401E25D02B
:2020AC000420022105F099FA2FE0504607F01EF804460420214605F090FA042007F016F816
:2020CC008442FAD157F80C4C24F07F4006F0F6FB40F2B410C1F200000068036807214FF01F
:2020EC006022200E98474FF4806030600420032105F073FA09E00420514605F06EFA43F2B2
:20210C00BD70C0F2860006F0D9FB41F2B820C5F20000D0F8B4004BF2700242F22C0E46F2F1
:20212C00000B47F618014FF0000C41F21009C4F20C02C4F2090E40F2944800F03F0086F84F
:20214C00CB0FC4F20C0B1180DEF80000CBF800C0C4F20909C9F800C0C4F26028C8F800A0FB
:20216C00BDE8F88F2DE9F04F0120ADF1440DADF81A000827ADF8187006A806F0CFFC002612
:20218C003546CD4C8DF83E50BDF81C00208266700898A0624FF6FF70E082384607F0A0F87E
:2021AC005FEA00080DD00121122207F099FC07F0A7F80DF13E010123C04A0091414606F0F4
:2021CC0025F99DF83E00DFF830934FF00108207032463346494604F1A800CDF8008005F039
:2021EC0079FC022104F1CC00324633460091494605F070FC042104F1F0003246334600917C
:20220C00494605F067FC042031461022A07004F14A0004F0A4F804F15A003146102204F033
:20222C009EF8E562E67126720720A67204F14A0210216072022006F05BFB04F15A02032061
:20224C00102106F055FB042004F12C02014606F04FFB01E005F0B0FC0A20ADF80A00ADF82D
:20226C0008704FF0FF35039502A806F057FC002840F07E8130460C90ADF824700925ADF867
:20228C00265009A806F04AFCDDF82C900028CDF8309040F06D81BDF82800102840F05C8151
:2022AC00208ABDF82A10884240F056814D4628884FF6FF71814200F047812B78A23B00F0C5
:2022CC002C812E3B40F04881A878B046002800F0F780801E00F0D080401E012840F2A78080
:2022EC00801E5DD0401E24D0401E03D0083800F0058108E1AB4807F0E4FC0C99487800288E
:20230C0040F001810846C1882184018961844089A084BC4807F068FB002840F0F480656B6D
:20232C00002D00F0F0802B68208C618CA28C984712E1B5F804A00A2006F0D2FF5FEA000845
:20234C000AD00121152207F0CBFBA8F808A006F0D7FF414606F00CFDB7483146062203F056
:20236C00FEFF26846684A684A8796073A54807F0A8FC8C4807F0A5FC4FF001084FF6FF70B2
:20238C002379E0824BB9A879082814BF042005206070404607F094F9B5E003206070B2E0CE
:2023AC006B78E27A002B3CD1A349281D03680B6080888880062363706889E082E88920841F
:2023CC00288A6084688AA084E878012A207308D11F2005F0B3FE4FF47A714143894806F0F0
:2023EC00A7F895F803B0B5F80AA0142006F078FF5FEA000800F08A800121142207F070FBF5
:20240C0088F808B02D1DC8F80C50A8F810A0042088F8120006F074FF804A414605F0D8FF86
:20242C0074E06878312865D1E67004201EE0687800285FD1A878A18A6278032811D0E07894
:20244C00257921B9012814BF2671E67005E0054303D0754806F06CF86278072AE5D1062011
:20246C0004E0062A06D0E07810B9032060704DE00220FBE70720F9E7687800283AD1E878A7
:20248C00A17988B96078022813D0072811D0062802D1207901280CD1634807F0A5FA40B906
:2024AC00012007F00DF904E0644A404605F0BEF868706878F0B926E0E4090020D19A000050
:2024CC006878B8B9594A0220102106F02BFA584A0320102106F026FA5948ED1C29680160E6
:2024EC00AB888380574A012528466179657005F09DF858B1677009E0CD960000A888484A3E
:20250C00102106F076FAB8F1010F25D1206B18B3016809B3607888471EE0687913281BD141
:20252C002889012808D1A07B022805D11D4807F0C8FB05F041FB0FE0052005F0FFFD014625
:20254C00184805F0F5FF07E06888C00B04D3394A0420014606F0E6F90C9848B1ADF8107028
:20256C000320ADF81200CDF8149004A806F0D6FA608A2579E17842082ED320F0010055EA1E
:20258C000103608228D07DB92F49E0798DF83400257A8DF835500A680DF136031A608988B4
:2025AC00998004E0D40A002003208DF83400607AA57A1C4A8DF83C0006218DF83D500DA82A
:2025CC0005F016FC216B30B1677021B1086810B1096838468847608A810806D320F0020085
:2025EC006082304604F054F8608AC108FFF434AE20F00400A57B6082681E05D0401E3FF4AD
:20260C0029AE29E6B00A002001200090618BA28BE38B208B05F012FA1EE6C046C39A0000A3
:20262C009F9C0000939C00008C0A00202E0A00203E0A0020100A0020280A00206D0A00208B
:20264C001C0A00204E0A0020220A00202DE9F84FCF4ED04C06F12D07CB4DDFF83083D7F832
:20266C00EF1F6368D7F8F30F8843C7F8F30F002BC7F8FF1F00F090816688012B00F04A813A
:20268C00DFF86CA3DFF86CB3DFF86C93022B74D0032B40F0DA810026A06857F8311C6660C2
:2026AC000028A1F5C061B8BF40420A46002AB8BF524290422EDA002954BF02206FF0010019
:2026CC00A26900EB4100032190FBF1F18918A161E368606998420BD0B1F11002B8BF5242FB
:2026EC0020691038B8BF40428242B8BF88B209DB98B20090D64830214FF47F42082304F03F
:20270C00B7FC208A0090D24804214FF4F802122304F0AEFC2846066001688908FCD206606F
:20272C005546012746600E202F6002F0D1F9C9480468EFF3118584F3118859460820B0FA35
:20274C0080F00A1AD07F431E0128D37704D14A46106820F00800106085F31188EFF31183CA
:20276C0084F311880420B0FA80F0091AC87F421E0128CA7740F0CA80C3E057F8316CB6F517
:20278C00C06F00F08B804FF00309C4F8049007F0CCF9B346002600B90126554633462D1F4D
:2027AC002E68002EFCD0AC4A0126D2F82CA02E600BB107F0C0F9CAF30720E06007F0B5F907
:2027CC00002300B933461A462B68002BFCD0A248D0F800A02E600AB107F0ADF9CAF38441F4
:2027EC00ABF5C0602161BBF5C06FA060B4BF6FF001030223E26803EB400393FBF9F009189E
:20280C00104602290FDB1E290BDB3F28B9BF521C401C3F22101C62613029B4BF10391F21C6
:20282C000DE060610BE010F13F0FACBF401E6FF03F00606111F1100FACBF10310021A1618C
:20284C0080B2009082484FF47F420823302104F00FFC7F48009604214FF40032112304F042
:20286C0007FC208B00907A4804214FF4F802122304F0FEFB002547F8399C444625602068F8
:20288C008008FCD27248294660220523009104F0EFFB266020688008FCD367E00021616006
:2028AC002846016002689208FCD201605546012741600E202F6002F00BF966480468EFF3F7
:2028CC00118584F3118859460820B0FA80F00A1AD07F431E0128D37704D14A46106820F031
:2028EC000800106085F31188EFF3118384F311880420B0FA80F0091AC87F421E0128CA774B
:20290C0004D14A46106820F00400106083F31188BDE8F88F57F8312C02214BF2F52061602D
:20292C005043000A36B94D49096821F07F414018400801E0002161800835010C28600126AB
:20294C0069600323AE60444647F8393C0025256020688008FCD23E48294660220523009178
:20296C0004F086FB266020688008FCD347F8216C47F8395C0820C7F8FF0FC7F8F30F47F8DC
:20298C00396CBDE8F88FC04634600C4038600C400C400C409C21002031480068006801468B
:2029AC0020208847B24641F61D564FF002090F2000214FF4C072CAF800000723CAF8046039
:2029CC002348CDF8009004F053FB464628460125056056F8040C8008FBD32088CAF81050E6
:2029EC0001280BD00020294604F0A4FC4D462BE004800C40E8220020381D002040464FF0D2
:202A0C0000080C30C0F80080032347F8393CC6F8008030688008FCD20D48CDF800904146F7
:202A2C006022052304F024FB356030688008FCD3202047F8210C47F8398C0826C7F8FF6F3E
:202A4C00C7F8F36F47F8395C6560BDE8F88FC04600A00C407CA5000004A00C401020094008
:202A6C00A00100102DE9F04F8146B9F1010FADF1140D40F04981A6480068EFF3118280F3CC
:202A8C001188AE4D2879012818BF012002D102210020297182F31188012800F0338107F052
:202AAC00F5F90290A6480668701907F003FA00242746009405EB06080197A8B9404607F018
:202ACC00E1F90646B068400808D3F0683169024601209047C0B2012800F00D81304607F0D1
:202AEC00CDF90646B045EDD1002F40F0088107F0C1F90390049787480760012006F0F6FA01
:202B0C00012804D1384605F0B9FA01200090824F3868806801462046884780480068B9F125
:202B2C00010F40F08A80874E0A36F37903B10124B3790BB144F0020473790BB144F00404DF
:202B4C00DFF8DCB173782BB1B86A006B59460246C88D904733782BB1B86A006B59460246A3
:202B6C00488D90476F4901200860B86A8069014644F0200088476C4A2968DFF8B4A11068FC
:202B8C0040F001001060480812D2684806F077FF8146B9F1040FF8D05146086820F00300D2
:202BAC000860B86C4068024660480321904701E001200190049800F023FDB86A5749806BFE
:202BCC0009688047019850B9B86C406802465748494690475146086840F0030008603868B4
:202BEC008068014601208847524908688009FCD30098012802D1012005F040FAB86A406998
:202C0C00014620468847B86A406B0146204688470128F8D174782CB1B86AC06A59460246F5
:202C2C00C88D9047307828B1B86AC06A59460246488D90473B49012008603B4903220868D6
:202C4C002A7120F001000860404607F033F9049900B101214FF00109081C19D1404607F067
:202C6C0011F944460646B068C00807D3F0683169024604209047C0B2012806D0304607F09B
:202C8C00FDF80646B442EED102E02B48006880472048224FC0F80090386806F04CFF404626
:202CAC0007F008F9049FD0B9404607F0EBF846460446A068000907D3E06821690246082081
:202CCC009047C0B2012806D0204607F0D7F80446A642EED103E0184800688047022748465A
:202CEC002871039807F0C2F803F0EAFF029807F0B9F8384609E0104800688047022701208D
:202D0C002871F3E7062000E0022005B0BDE8F08F7CA500000C400940900100102C20094047
:202D2C00E09F0000282008600C20084000400340242208401410094070A50000381D0020DC
:202D4C006CA500002C2200202DE9F04F0120ADF12C0DADF802000826ADF80060684605F01E
:202D6C00DDFE914DBDF8040068800298A8600420ADF80E008D480078ADF80C608000049002
:202D8C0003A805F0CBFE00280CBF05980020884CA06038B106F084FA864A04F1140031468D
:202DAC0005F0EAF9606810B905F10C006060002028704FF47A74AC8004F0A0FD022064218F
:202DCC00012206F089FC05F110004FF0FF3102F05FFD7948794F7A4B7A4ED0F8008040F6F2
:202DEC0035494FF4004ABB46B7FBF8F10891B3FBF8F10991D1E0012006F03CF9089807F0C2
:202E0C0049F80020772103F059FDD8B1F72006A9062206F05EFE074606F094FE5FB19DF821
:202E2C0018000127802806D19DF819301BB99DF81A3003B90027012F05D006A8062106F083
:202E4C0073FD00E00027002006F014F9002F00F095809DF81B109DF81C009DF81D7032884B
:202E6C00B6F90230B6F806C040EA0120010141EA2711C2EB2110C910A1EB420103FB01F2CA
:202E8C00B6F904304043071303FB07F0801300EBE220B6F90A2000EB800180314010A0F556
:202EAC007A400B12811001FB01FE4FEA6E3101FB02F7B6F908204243521002EBE7020AEB4D
:202ECC00A2420CFB02F2D713B6F90A205143B6F908204243521002EBE1020AEBA2410CFB43
:202EEC0001F1CA133AD0B6F90E104843B6F910104FEAEE24614301EB40019DF81840B6F90E
:202F0C000C00000400EBA10001139DF8190040EA04209DF81A40000140EA24102A4C09FB31
:202F2C00104009FB1104E00F19BFB4FBF2F044006000B0FBF7F4B6F91610B6F91470A208D8
:202F4C00E0084043400B484307FB02F1B6F91270491301EB2031781804EB20148DF81830E5
:202F6C008DF81B4018148DF81A001F128DF81970220C8DF81D20210A8DF81C100020062148
:202F8C0006AA04F02FFAA9884FF47A704843A0EB0B00B0FBF8F006F07DFF287801283FF4D8
:202FAC002AAF0998F7E7C046700D0020E4090020F81A002080A4000080A5000080380100C9
:202FCC0040420F00DC3A0020000050C3F8B5A0F2013517460E46022D40F214818B4A8A4947
:202FEC002D1F0F2D04D9143D4BD0AD1E1CD011E0DFE815F0C300BD00F500E500B500AD00C4
:20300C000801A4009C0010001000940089007A006F006100272880F2F580022E40F0F280CC
:20302C00398805F07BFBF8BD012E40F0EB800D46E878012800F0E6800A463878117910719C
:20304C0081B9002800F0DE805078012800F0A980042800F0A680062800F0A380052800F00A
:20306C00A080F8BD3878002840F0CC805078032800F0A280072800F09F80052800F09C809F
:20308C00F8BD012E40F0BE803878012840F0BA800D4605F1F00006F0A7FC002840F0B28033
:2030AC00002003F0F5FA002840F0AC802846CC3006F007FEF8BD022E40F0A48038880A28EE
:2030CC00C0F2A080B0F5486F00F39C8015461E3517E0022E40F096803888B0F5FA7F80F23C
:2030EC00918015461C350CE0022E40F08B8038880628C0F28780B0F5486F00F3838015465C
:20310C001A352880F8BD022E7CD13888062879DBB0F5486F76DC0D461835F2E7012E71D1A0
:20312C00387802286EDA0D460B350EE0012E69D13878042866DA0D460A3506E0012E61D182
:20314C00387808285EDA0D4609352870F8BD012E58D13878042855DA0D460835F5E7012E6F
:20316C0050D1387804284DDC0D46ED1DEDE7022E48D138880D461435C3E7012E42D10D4608
:20318C00287901283ED00A463878D178D07061B9002837D05078012803D0042818BF052885
:2031AC0030D1012006F08CFAF8BD387850BB5078022818BF052825D106F0E6FBF8BD0D462A
:2031CC0005F189041F220021204603F0C8F839463246204602F052FC0020AE710EE00D46C8
:2031EC0005F16A041F220021204603F0B8F839463246204602F042FC01206E713146224688
:20320C0004F014FAF8BDC046E4090020E40900202DE9F04F0C4605467A4E61782078ADF102
:20322C00240D00EB0120ADF804007188BDF8040088421AD1706940F6FF7700EB011007426B
:20324C0004D1000BC0B2000303F09BFDBDF80400B179A21C000100EB0130102103F052FA54
:20326C007088401C81B2718007E006F0F9FA28464FF6FF7103F016FE7188B3888B4240F09F
:20328C00B28061498A1C148888884FF6FF720794A24200F0A580271C00F0A280824218BFBA
:2032AC00002840D1180100F4704200275FFA93F1801A1FFA80FBF0880897C5B241185FFA98
:2032CC0081FAAA4528DBAAEB050101F10108A8420CBF04240024AA45D8BFA34516DD04EB8E
:2032EC00053004210DF1160204F058FB04270DF1160919F8011B089805F040FC7F1E089090
:20330C00F7D1241DA4B2B4F5805FE4DBF0886D1CB8F10108EDB2DAD10898002105F02EFC1E
:20332C00002105F02BFC0799884259D14FF4F02003F027FD324A4FF4F020102103F0E2F978
:20334C004FF4F83004216A4604F028FB0098B0F1FF3F30D04FF0805606F5EC742068254D29
:20336C00036801210A4628469847D6F8D8014268012128469047D6F8A80141694FF4F830D3
:20338C0088471D4800264FF4F8370660384610210DF1060204F002FB40B10DF106003946D5
:2033AC00102206F06CF81037780CEFD0206842683146284690474FF4F8300068B0F1FF3F4B
:2033CC000ED011481049C08909898000890002468B18A3F5F833002BC8BFC91A074B9847F9
:2033EC0006F03EFA02E0284603F05CFD09B0BDE8F08FC046004003408404604201F0010075
:20340C000622002070180020042200202DE9F0411C4615468C4208BF854282BF0023002284
:20342C00E5E0002C08BF002D0AD100290EBF00286FF000006FF0000100F0E1F8BDE8F08104
:20344C005FF000085FF0000E002C08BF8D429CBF2C1C0025070C47EA01470E0CB44208BFBF
:20346C00BD429EBF5FEA044444EA15445FEA0545070A47EA01670E0AB44208BFBD429EBF5E
:20348C005FEA042444EA15645FEA0525470847EAC1774E08B44208BFBD4200F29380870837
:2034AC0047EA81778E08B44208BFBD427CD8C70847EA4177CE08B44208BFBD4266D8070999
:2034CC0047EA01770E09B44208BFBD4250D8470947EAC1674E09B44208BFBD423AD88709DE
:2034EC0047EA81678E09B44208BFBD4224D8C70947EA4167CE09B44208BFBD420DD8E60150
:20350C0046EA5566EF01B14208BFB84201D3C01BB14158EB08085EEB0E0EA60146EA9566E5
:20352C004FEA8517B14208BFB84201D3C01BB14158EB08084EEB0E0E660146EAD5666F016B
:20354C00B14208BFB84201D3C01BB14158EB08084EEB0E0E260146EA15762F01B14208BF96
:20356C00B84201D3C01BB14158EB08085EEB0E0EE60046EA5576EF00B14208BFB84201D394
:20358C00C01BB14158EB08084EEB0E0EA60046EA9576AF00B14208BFB84201D3C01BB141C5
:2035AC0058EB08084EEB0E0E660046EAD5766F00B14208BFB84201D3C01BB14158EB08085F
:2035CC005EEB0E0EA14208BFA84201D3401BA14158EB08085EEB0E0EA34208BFAA423EBF88
:2035EC002D0A45EA0465240A89D3734642461E4617460B46024631463846BDE8F081704709
:20360C00F8B507460020C4F209000068800880F0CA8005F029FB42F22421C4F208010A6858
:20362C00002112F0030F18BF0121D20828BF41F00201002F18BF41F0040143F62836C2F2D4
:20364C00000696F90720821A052A04DAB2798A4208BFB28871D041F29C340F28A0F10F02E4
:20366C00C5F2000426DB02EB0012F03A1712072F88BF0727BC46BCF1060F88BF4FF0060C29
:20368C0054F82CE00423254603EB8C03EB58CD08A3EB0E0303F0FF0C24BFC3F30725AC444D
:2036AC008D0824BFC3F30745AC444D0805D30CEB136C02E04FF0000C674654F82730CC08A0
:2036CC0003F0FF0524BFC3F3072425448C0824BFC3F3074425444C0828BF05EB1365A2EBA9
:2036EC0007221FFA8CF3534380330022082B88BF012243F6B473C5F200031C681B684FF491
:20370C00D07C34275219241703F0FF0307FB14C45C434FF6FF73B4FBF2F2934238BF1A1C96
:20372C00802892B2B28005DA10F1800F03DA6FF07F0000E07F20F071B17142F20800C4F241
:20374C00090001681F2A4FF00000316015D340F2FF13934213D219465208401C93420ED222
:20376C005208401C93420AD25208401C914206D25208401C9142EFD301E01F22B2800F3A8D
:20378C004FF600714FF0350E1209C8F2A401C4F2090E40EAC2000143CEF8FB1F4FF0000C43
:2037AC00CEF8FFCFF8BD43F62E324FF6FD50082141F2300EC2F20002C0F2A4001170C4F2AC
:2037CC00090ECEF80000F8BD2DE9FE4F0D4680462868D8F80440D8F808A0002800F0AE806D
:2037EC0006F03CFB616D21B106F034FB03202874A4E04FF0010B85F810B0656506F02AFB1B
:20380C0094F8700030B194F859204E49A06E114305F0F0FADAF80010486840F00200486076
:20382C00D8F80830D8F804C028681F689CF858100090B7F1804F80B200FA01F01FFA80F917
:20384C0014BF414E414E4248AF684FB99CF858104FEA810E00EB0E018A690CF1720109E0B8
:20386C009CF858104FEA810E00EB0E010A6909EB0701491EB2607160196808310191009FDA
:20388C0031603901B76843F6F07210390A4042EA0701B1601968B1F1804F14BF2D492E490D
:2038AC006F681FB9704480699E1D04E07044806809EB0706761E88600E6001984860886859
:2038CC0002438A60DCF86C70D868996808437968096888621968486A40F003004862DAF853
:2038EC000010486940F0010048616E6806F0B6FA1A4D0746287801280AD016F0704F02D1B6
:20390C00102004F04DFE042004F04AFE85F800B0384606F09FFA207830B9616804F1380516
:20392C00284606F093FA10B15846BDE8FE8F404600F0FAFE2846002106F088FA0020BDE8BF
:20394C00FE8FC04600000680000500203004002074A000001005002040040020353B00208C
:20396C002DE9F04FADF15C0D04F0BEFE0027012808D156480068C0F30240022802DC0228D9
:20398C0008BF012752490868C0F38150012806D151F80C0C0126010E06FA01F007434D4836
:2039AC004D4E00783068C0F3460604F09DFE012808BF761C494C26603EB1FF2204F14001DF
:2039CC003046401E01F8012BFBD1DFF81491D9F800004FF0000800F0FF01FF2918D04D46EF
:2039EC0000F0FF03414601229E426CD902FA03F31F4268D100F0FF00201880F8401055F832
:203A0C00040F43EA0808491C00F0FF03FF2BEBD1092000F0F1FFC4F804900DA80021242298
:203A2C00082306F00FFA4FF0010A04F124000DAA8DF84CA0514606F001FA236833B30026A6
:203A4C002546B34660350AFA06F0074218D118EA000F04BF06F0FF0141F4C04104D0A019A8
:203A6C0090F8400059F820101E4801F009FEF0B24FF0FF3105F03EFD2368C5F800B001E079
:203A8C0004202860761C2D1D9E42DCD301A800213022082306F0CEF90020102101AB124AA6
:203AAC00009004F1080006F0C1F9104951F80D0C20F4F85040F4005041F80D0C5746C1F87A
:203ACC00FF7F0B4E376017B0BDE8F08F94120050B43F0050363B002080120840283800205D
:203AEC00041E0020007FC767557C00000D300940080009402DE9F04F0120ADF1240DADF839
:203B0C0002000826ADF80060684605F007F84F4CBDF8040060800298A0600420ADF80E001D
:203B2C004B480078ADF80C608000049003A804F0F5FF00280CBF05980020464DE86038B142
:203B4C0005F0AEFB444A05F11000314604F014FB686810B904F10C0068604FF47A7BA4F877
:203B6C0004B005F073FA02206421012205F0D8FD04F110004FF0FF3101F08AFE3A48384D9B
:203B8C00364B384A0768AE1C9A4606F10209B3FBF7F10791B2FBF7F1089151E0012004F059
:203BAC004DFA079806F076F90020442102F086FEA8B304202946022205F08BFF5FEA0008D1
:203BCC0024D029880806000C40EA2120C0F380382880C00B1AD301203146022205F079FFBB
:203BEC005FEA000812D003204946022205F071FF8046317899F80030F278707840EA01207E
:203C0C00ADF81A0042EA0320ADF8180005F09AFFB8F1010F03D03046042105F085FE002080
:203C2C0004F00CFA0020042106AA03F0EFFDA0880BFB00F0A0EB0A00B0FBF7F006F02AF94C
:203C4C0020780128AAD00898F8E7C046E0120020E40900201C1C002098A400003832040077
:203C6C00203B002040420F0080A500002DE9F04F08264FF00109ADF1240DADF800606846B9
:203C8C00ADF8029004F04AFF474DBDF8040068800298A8600420ADF80E0044480078ADF84D
:203CAC000C608000049003A804F038FF00280CBF059800203E4CE06038B105F0F1FA3D4AD8
:203CCC0004F11000314604F057FA606810B905F10C0060604FF47A77AF8005F051FA0220FF
:203CEC0064214A4605F004FD0020432102F0E6FD314C50B11020ADF81C0007A902200246CB
:203D0C0005F0CCF9207005F01DFF05F110004FF0FF3101F0BDFD2948066843F6982ABB4641
:203D2C00574639E0237853B10020432102F0C6FD28B1002005F060FE207005F003FFBAFB61
:203D4C00F8F006F0A7F82078B8B10020432102F0B5FDA0B104F032F9207005F0F3FE6188E2
:203D6C00A3880806000C40EA2120ADF818001806000C40EA2320ADF81A0084F80090002048
:203D8C00042106AA03F07AFCA8880BFB00F0C01BB0FBF6F006F07EF82878B0460128C1D08B
:203DAC000748B0FBF8F0F5E728100020E40900208C1B00208CA40000183B002080A5000045
:203DCC0040420F002DE9FE4F0E4682460CAF307A3D8899461446800928BF082080F0948048
:203DEC00084601A905F0B6F8012808BF012000F08B80BDF80400DFF8148142F60211002779
:203E0C004FF0FF0B401A6BD048F2FF21401A33D0401E17D0401E61D1002D5DD1B9F1020F16
:203E2C0058D12078062825DAF06821880180F068444684425CD12078617802F00FFF4FF081
:203E4C00020B58E0002D47D1B9F1060F42DA207810280FDCF06821464A4601F00FFE03F0F6
:203E6C00ABF8F168444604F10C00884240D14FF0010B40E080273BE075BBB9F1100F29DCA9
:203E8C00F06821464A4601F0F9FD444604F10C0021780678012902D9491F13D028E0457829
:203EAC000846617802F00AFD1EB9284605F0A4FD05E004F111012846324605F0EFF805F058
:203ECC0041FE15E0D0F8010004F11101324601F0D5FD0DE00D270BE00B2709E00A2707E058
:203EEC00009550464B463146224602F01AFF0746BBF1FF0F07D04446241D206818B10168AD
:203F0C0009B1584688473846BDE8FE8F18190020B0B5456884684B48297BADF1180D01294B
:203F2C0016D0217C627C484B2F7E0143009143EA02010191454937F0010718BF081CA27C67
:203F4C001043029095F859000322FF2811D00DE0677C217C3843A37C019041F000410091C2
:203F6C0043F000403A49029095F85900014304220391FF204DF82200694605F15C0001F051
:203F8C0041FFA866002808BF002058D0287B314951F82000012828D02068B0F1804F14BF1E
:203FAC0022220A22217CA86E05F0D8F82068B0F1804F14BF21220922617CA86E05F0CEF826
:203FCC002068B0F1804F14BF24220C22A17CA86E05F0C4F895F85910FF292FD02068B0F16C
:203FEC00804F14BF23220B2225E02068B0F1804F14BF21220922217CA86E05F0AFF820688C
:20400C00B0F1804F14BF22220A22617CA86E05F0A5F82068B0F1804F14BF24220C22A17C00
:20402C00A86E05F09BF82068B0F1804F14BF23220B2295F85910A86E05F090F8012006B039
:20404C00B0BDC046000480A0004000800004C0A00020008074A0000041F21C302DE990417F
:20406C00C5F200000268B2F1FF3F08BF002204F03BFB002840F08B8041F2183041F2A0016D
:20408C00C5F20000C5F200010068D1F80080070F08F0FF08B8F1800F28BF4FF0000804F085
:2040AC0023FB4FF0FF3190B1401E07D0401E1DD1E7B908F10A084FFA88F117E0381C66D0B7
:2040CC00801E13D108F114084FFA88F10EE03846401E0AD0801E5AD0001F58D0401E05D194
:2040EC0008F116084FFA88F100E00A2116294EDB40F2844446F25C01002342F2082E01202B
:20410C0040F2801CC4F26024C4F20C012360C4F2043E0860C4F2283CCEF80000DCF8000031
:20412C0038B140F20010C4F2203000681046FDF739FD44F20402C4F203021068052142F291
:20414C004803C2F20001C4F2030320F003000143116019684FF0000EC0F2391E6FF35B41FA
:20416C004EEA01000421C4F2090118600868C0F3013001280CD10A684FF6FF70CFF6FC401C
:20418C00104040F400320A600860BDE89081FEE7BDE890812DE9F04F04466668D4F8088079
:2041AC000F46ADF1540D05F059FE96F89810012903D105F04FFE002079E0012186F898101C
:2041CC0005F048FE1FB90DA805F0EEFB0DAFF86820B9A06890F80C90457B02E090F8009052
:2041EC004578B9F1FF0FE6D0FF2DE4D03148FF2340EA09011191DFF8C0B01393284311A925
:20420C0012900BF1040001F0FDFD8246BAF1000FCBF800A0CFD049460D2204F09FFF50469B
:20422C0029460E2204F09AFF3878307078687060387A002130220823F06001A805F0FAFD11
:20424C000694002500951D4AD8F8041006F1100001AB05F0EBFD01A824220823294605F0A5
:20426C00F1FD0120012101AA8DF81C0006F12C0005F0E4FD307838B906F14800294601AACA
:20428C0005F0DCFD0E487060B5673572F56798F8080000F0B1FB204603F040FA094A009550
:2042AC0006F184000421234604F098FC204615B0BDE8F08F00200084083B00202949000099
:2042CC00199C0000359A00002DE9F04304466568A6680F46ADF1540D05F0C0FD95F8A41099
:2042EC00012903D105F0B6FD002076E04FF0010985F8A49005F0AEFD1FB90DA805F0D8FAA8
:20430C000DAF4FF00008C5F854803869286178696861387E2876387B28733878287078685F
:20432C0085F87080686078694146092828BF494685F85810707900F05FFB204602F01EFFA0
:20434C00F07C85F859002046FFF7E2FD50B9707900F0BEFB05F082FD85F8A48005F07AFDB8
:20436C00444639E001A841463022082305F062FD0694CDF800801A4A317905F11C0001ABE2
:20438C0005F054FD287878B901A841462422082305F058FD8DF81C9005F13800414601AA7E
:2043AC0005F04CFD0F4800E0B868A86002F026FBE866287B012806D1A86E0B4905F054FCA1
:2043CC00A86E00B18460094ACDF8008005F190000421234604F002FC204615B0BDE8F08345
:2043EC0031480000219C0000B5650000819B00002DE9F04F0C4646498A8BADF13C0D844649
:20440C000992487B0D90CE7800964A8B0892888C0C900A8B488C079291F80CE00B908E7882
:20442C00CA7A088C0692CB8A0A908A7A91F804A005924A7AC88B04920A7A91F80180039279
:20444C00CA798D8A02928A79CF6A01924A79E146A9F54079B9F11D0F10D8DFE809F0554F30
:20446C004D4B49474543403D3B393634320F312F2D2B2A24211F1D0F1A191816BCF1270F2E
:20448C0043DA604603F05AFE13E0DDF834E0F246D046CDF8148016E00C980B900B980A900D
:2044AC000A98054620E04431086820608888A0802BE0099009980890089807900798069025
:2044CC00069B238021E0059804900498039001E03E31E9E7039802900298009006E0019A33
:2044EC0089310DE06A310BE02846E2E7009E0BE03831D9E7276008E05A3100E04A31102213
:20450C00204601F0BBFA00E026700FB0BDE8F08FE40900202DE9F041404D3D49686904F0FE
:20452C0069FCFF20A87000242C7068216C70012002F0C4F9002808BF271C65D02C46802065
:20454C0001222071211D6B2004F0A8FD05F0FAFA3048314900688046B1FBF0F005F09AFC19
:20456C0002F0FCFC261D071C4ED0A078022817D005F0C6F990B10120682102F09FF978B146
:20458C001020E070E11C01221C2004F087FD054605F0D8FA0DB10220A07001E005F0D2FA17
:2045AC0005F0AEF960B303F045FC58B301200C2102F084F930B30F202071314601220A20DD
:2045CC0004F06CFD42F21070B0FBF8F005F062FC04F10E011020032205F07BFA04F10E050D
:2045EC0040B1287880302081687880306081A8788030A08101220B203146227104F04EFDD4
:20460C0005F0A0FA03F0FAFC3846BDE8F081C0460700008080A50000A08601001820002051
:20462C002DE9F0430746ADF11C0D05F0FBFB04F089FB4FF000090646CDF80C9005F0A0FA2A
:20464C0030F0010002D00398B04202D16FF0040066E078684C4658B1B0F1FF3F05D004A976
:20466C0004F074FA30B1804659E04FF0FF3000E02046049005F0D2FB049D4FF001082D18B4
:20468C0002E00A463BE004937068049905F0DEFB00282DD0684602F0CFFED8B9BDF804000B
:2046AC0005A904F06FF888B9BB68BDF81400BDF80610029A984748B1BDF81400BDF80650A5
:2046CC00B881029BFD81C8463B6111E0029903A804F00CFB0498641CB0F1FF3FD4D00028D7
:2046EC00D2D005F09BFB2B1A02D004989842CAD2039F04F044FF06F1080547B13A4652F8B9
:20470C000C1C0029BDD1296842F80C1C2F6005F067F824B1706805F07DFB641EFAD14046EB
:20472C0007B0BDE8F08370472DE9F04707467E68BD6805F093FB716D002967D005F08AFB07
:20474C002968486820F0020048602968486A20F003004862F46EE868A9680843616809680A
:20476C00C1F804052968486920F00100486128684FF00108C0F820802868B0F1804F14BF6C
:20478C0040F201104FF48070224909688847384602F0F4FC706DD0F804A005F05FFB1E4C8A
:2047AC008146207850B11AF0704F02D1102003F04BFE042003F048FE00202070484605F0F5
:2047CC0049FB716D087C042802D003200874716DAA68E868F36E4446104304FA00F258685C
:2047EC000068C2622868B0F1804F14BF0B480C480D68806800248204A5EB9250401E086068
:20480C003846B26874659047BDE8F08705F022FBBDE8F08778000010353B002000050020BD
:20482C00300400202DE9F0470646B1680A68D06975681062400841D2E86E40680268CC6875
:20484C00D2F80405204206D00B68586A20F002005862C2F80445D2F804258868024256D0F0
:20486C000A68506A20F0010050628868E96E49680968C1F80405686D002404746F6DD7F8F6
:20488C0004A005F0EBFADFF88C80814698F8000050B11AF0704F02D1102003F0D5FD04209E
:2048AC0003F0D2FD40460470484605F0D3FAAA686C65304639469047BDE8F0870A685069EA
:2048CC0020F0010050616F6DF7B9506820F002005060506A20F0030050628B68C868E96E0B
:2048EC00496809681843B2F1804FC1F804050CBF4FF4807040F201100749096888473046B4
:20490C0002F03CFCBDE8F0873046FFF70DFFBDE8F087C046353B002078000010F8B506469A
:20492C003448B4680068756841682068884722680121C2F81C1868B12B7AFF2B0AD0FF2112
:20494C004009297251D20420C2F80408022005F088F94AE0287A002847D0401E13D0401E18
:20496C0002D0FD3844D03DE0D2F80828286F0270286F401C28676F6F7F1E6F6719D0012F04
:20498C0088BF092127E0EF6E7F1EEF6613D16F6F7FB10220696E28722268097C012F4FEA47
:2049AC00410141F00101C2F8001894BF03210B2113E004210DE0A86E22680078C2F808081A
:2049CC00A86E022F00F10100A86604D26F6F17B905210020287222680220C2F8041805F0A9
:2049EC0040F9F8BDFF202872F8BD304602F06EFEF8BDC046AC0100102DE9F04105462E48FB
:204A0C000068EFF3118880F311882C4A505D411C0028515549D12A4CA900675C07F03F001B
:204A2C003F280C4401D0FFF7E7FF607800F03F003F2801D0FFF7E0FF668837F07F0019D174
:204A4C00F80911D24FF08054D4F8B801406901463046884704F5DC742068406B0146304660
:204A6C0088470128F8D120E0164850F82610012088471AE04FF08054D4F8B801C06901469B
:204A8C0030468847D4F8B801406A014630468847D4F8B801C06A01463046884701210A4A59
:204AAC000A48116001688908FCD388F31188284604F008FBBDE8F0817CA500002C22002040
:204ACC00E09F00006822002028200860282008402D492DE9F0410968EFF3118881F31188AB
:204AEC002A4B195C4A1E01291A5449D12849800045180E5C6F8836F07F0019D1F00911D28C
:204B0C004FF08054D4F8B801806901463846884704F5DC742068406B01463846884702283A
:204B2C00F8D120E01D4850F82710002088471AE04FF08054D4F8B801006A0146384688473D
:204B4C00D4F8B801806A014638468847D4F8B801006B01463846884701210E4A0E48116081
:204B6C0001688908FCD306F03F003F2801D0FFF7AFFF687800F03F003F2801D0FFF7A8FF6B
:204B8C0088F31188BDE8F0817CA500002C220020E09F0000282008602820084068220020E7
:204BAC002C482DE9FC47006800680146202088472D4DDFF8A4A04FF002080F2000214FF485
:204BCC00C07207232D3D286041F61D5068605046CDF8008002F04CFA214824490124A0F170
:204BEC000C06091F0C6056F8041C8908FBD3DFF86C90B9F800102C61012905D0002021468F
:204C0C0002F098FB444621E00027164D0760032345F8393C376030688008FCD2CDF80080E5
:204C2C00504639466022052302F022FA346030688008FCD3202045F8210C45F8397C08264E
:204C4C00C5F8FF6FC5F8F36F45F8394CC9F80440BDE8FC87A001001000A00C409C21002095
:204C6C0044600C4039400C4039400C4038600C402DE9F84FD0F8089045681646B1F1200042
:204C8C004AD0401E44D0401E3FD1AF6E317828484FF0FF34002F40EA010845D02648026817
:204CAC008A4241D9824621460AF12400834605F0CDF85FFA88F10AEB8100036E63B97B6879
:204CCC000766012088401B49424618437860384604F07AF8002700E00127584605F09AF81B
:204CEC0017BBD9F80000B0F1804F14BF23220B223178A86E04F032FAA86E95F8591002F073
:204D0C00D5FD307885F859000DE06FF001040BE0002485F8704007E0297B0020012908BF0E
:204D2C00012085F8700000242046BDE8F88FC04600200080007FC76728380020BCB5074612
:204D4C0004F0DEFD00285AD02E4C207840BB3FB304F0D6FD10B30120682101F0AFFDF8B1AD
:204D6C0009202071211D01226B2004F097F9251DA0B13F202870294601226C2004F08EF9DA
:204D8C000021217050B1E11C1C20012204F086F920B13A202946012204F09BFE04F0D2FE77
:204DAC00F8B2277040B380F0FF0020716821012001F084FD28B3211D6C20012204F06EF974
:204DCC0004F0C0FE2078C0F3801404F099FDB0B103F030F8A8B101200C2101F06FFD80B1FB
:204DEC00012C14BF00201120694601228DF800000A2004F053F902E003F000F9BCBD04F05A
:204E0C00A1FEBCBD182000202DE9FE4F0D4681460CAF287A3C8898469346800928BF082029
:204E2C0053D2084601A904F095F8012808BF01204BD0BDF80400DFF898A042F60211002663
:204E4C00FF27401A2ED048F23F11401A32D0401E14D0801E24D10CBBB8F1010F1CD19BF80D
:204E6C0000000A2808DBE9680870E9685446601C88421FD102271FE080261BE074B9B8F188
:204E8C00010F09D19BF80000E9680870E96854468C420FD101270FE00D260BE00B2609E0D8
:204EAC000A2607E000944846434629465A4601F038FF0646FF2F07D05046001D006818B1B8
:204ECC00016809B1384688473046BDE8FE8FC046F81A00202DE9FE4F0D4681460CAF287A9C
:204EEC003C8898469346800928BF082053D2084601A904F02FF8012808BF01204BD0BDF87A
:204F0C000400DFF898A042F602110026FF27401A2ED048F21F11401A32D0401E14D0401E1D
:204F2C0024D10CBBB8F1010F1CD19BF800000A2808DBE9680870E9685446601C88421FD171
:204F4C0002271FE080261BE074B9B8F1010F09D19BF80000E9680870E96854468C420FD1C7
:204F6C0001270FE00D260BE00B2609E00A2607E000944846434629465A4601F0D2FE0646F8
:204F8C00FF2F07D05046001D006818B1016809B1384688473046BDE8FE8FC0468C1B002037
:204FAC002DE9FE4F0D4681460CAF287A3C8898469346800928BF082053D2084601A903F0E8
:204FCC00C9FF012808BF01204BD0BDF80400DFF898A042F602110026FF27401A2ED048F2E0
:204FEC00FF01401A32D0401E14D0401E24D10CBBB8F1010F1CD19BF800001E2808DBE9683A
:20500C000870E9685446601C88421FD102271FE080261BE074B9B8F1010F09D19BF80000CF
:20502C00E9680870E96854468C420FD101270FE00D260BE00B2609E00A2607E0009448467A
:20504C00434629465A4601F06CFE0646FF2F07D05046001D006818B1016809B138468847AC
:20506C003046BDE8FE8FC0461C1C00202DE9FE4F0D4681460CAF287A3C8898469346800940
:20508C0028BF082053D2084601A903F063FF012808BF01204BD0BDF80400DFF898A042F657
:2050AC0002110026FF27401A2ED048F27F11401A32D0401E13D0401E24D10CBBB8F1010FF3
:2050CC001CD19BF800000A2807DBE9680870E96854468C4220D1022720E080261CE07CB9BD
:2050EC00B8F1020F0AD1E868594609880180E9685446601C88420FD101270FE00D260BE0C8
:20510C000B2609E00A2607E000944846434629465A4601F006FE0646FF2F07D05046001D9F
:20512C00006818B1016809B1384688473046BDE8FE8FC046BC1900202DE9FE4F0D468146A2
:20514C000CAF287A3C8898469346800928BF082053D2084601A903F0FDFE012808BF0120B7
:20516C004BD0BDF80400DFF898A042F602110026FF27401A2ED048F26F11401A32D0401EDD
:20518C0014D0401E24D10CBBB8F1010F1CD19BF800000A2808DBE9680870E9685446601C87
:2051AC0088421FD102271FE080261BE074B9B8F1010F09D19BF80000E9680870E968544659
:2051CC008C420FD101270FE00D260BE00B2609E00A2607E000944846434629465A4601F004
:2051EC00A0FD0646FF2F07D05046001D006818B1016809B1384688473046BDE8FE8FC046B3
:20520C00AC1C002038B504F090FC2A4C256805F00C000C2846D0E8081ED203F0B7FB014613
:20522C0025480068884217D22448254A254D036812682868B3FBF2F22018891A04F0E6FDD4
:20524C002868201804F02AFE0120FDF70BFC2868201804F027FE27E0280923D21A4A68095F
:20526C0004D21168104621F0010103E01046016841F001010160983210684FF0805440F0AF
:20528C0003001060D4F8B8018069014620208847D4F8B8010D4C806B216880470120206011
:2052AC00206801E004F007FD04F045FC01F0D0FA38BDC046381D002074A5000078A50000EB
:2052CC0080A5000064A500008C2108402C2009402DE9FC470C4682460AAF207A3F8899469E
:2052EC001546800928BF082052D2084601A903F031FE012808BF01204AD0BDF80400DFF8B6
:20530C00948042F60211FF26401A2ED048F26311401A012827D827BBB9F1010F1FD1BDF834
:20532C0004104AF666200027884202D12978032913DA2978E2681170BDF80410884205D035
:20534C00E1684046884218D13E4618E0E1684046401C884211D1012611E080270DE00D278C
:20536C000BE00B2709E00A2707E0009750464B4621462A4601F0D5FC0746FF2E07D04046D5
:20538C00001D006818B1016809B1304688473846BDE8FC87A81D00202DE9F0470F46814657
:2053AC007868D9F80450D9F808A0002410B9F86800284ED0287801280FD104F04FFDA96FCF
:2053CC0039B1E96F8F61EF6704F044FD0120BDE8F087AF67EF6704F03DFD04F03FFD1E4E91
:2053EC0080463078012804D0042003F0D9F801203070404604F02EFD05F12C004FF0FF3157
:20540C00804604F023FDDAF8040004F0FBFC4846394601F0BFFADAF8040004F0EFFC2878D9
:20542C0098B905F148004FF0FF3104F00FFD04F015FD0746307818B1042003F005F83470E6
:20544C00384604F007FD287A00B90124404604F0E1FC2046BDE8F087343B00202DE9F0419B
:20546C000D462B4C2B4907289046ADF1180D4BD8DFE800F02B3F3D3B393734040420ADF8ED
:20548C000A0003950826ADF8086002A803F046FB002839D104980028074635D0606804F140
:2054AC001701814209D0ADF80060606801900521ADF80210684603F031FB384641462A46AF
:2054CC0000F0DCFA676025701EE0082D1CD1404601680F3421604068606015E00C461534D3
:2054EC0008E00C4606E0643404E04F3402E03A3400E0253420460021152200F030FF2046B5
:20550C0041462A4600F0BAFA06B0BDE8F081C04698150020111600202DE9F041DFF8A880B8
:20552C00244D071C14D100262E703046FFF706FC44462149606903F05DFC60690C2132463D
:20554C0003F06EFC02F052FA05F1280004F0B9FB022F2CD1EF8802200A2600244FF47A7195
:20556C00287042466E70154BAC70B1FBF7F0EC7001B2480000EBC100E86002F11400006858
:20558C001C700C21012203F04BFC0E480C490068B1FBF0F004F07EFCFEF7BCFF288900F08B
:2055AC00FF00FFF7CBFB05F1280004F088FBBDE8F081C046B81E002007000080313B00206A
:2055CC00A086010080A50000182000202A482DE9F84FD0F80090EFF3118489F31188274EF3
:2055EC00B068012104F006FC4FF0010A4FF000080546326871697769A6F81CA03068A6F8AF
:20560C001E80891A2A1A8A42A5EB07052DD384F311884446E7195046394604F0E7FB2D1BC4
:20562C000446AC42F6D9EFF3118B89F31188F08B012804D14046394604F0D8FB0446B4F190
:20564C00FF3F06D0B169641BA14238BF0C1CE11901E0B4693919204604F0C4FBA6F820A0CE
:20566C00A6F81C805C46376001E0A6F81C8084F31188BDE8F88FC0467CA500007801002094
:20568C00F8B50D46EEB2290824BF25494D40254AB300D15885EA01040440C4F3006C224CBB
:2056AC0000EA050781433C4000F4E0272143B7F5E02F01D14C0E15D300F4E0245CEA040731
:2056CC0010D001F4E027B7F5A02707D0B7F5803704BF21F4003141F4A02103E021F480318D
:2056EC0041F4C021114CD150C10D04D3A4F18001C5F380528A55000E11D304F0AFFB290E1F
:20570C0003D201210022B14002E00121B1400A46503423688B431A43226004F09BFBF8BD33
:20572C00006000A000100840FF7F077F802002402DE9FE4F0D4681460CAF287A3C889846A3
:20574C009346800928BF082046D2084601A903F001FC012808BF01203ED0BDF80400DFF81D
:20576C007CA042F602110026FF27401A22D04AF2C031401A0BD0401E1AD1BCB9B8F1010F45
:20578C0012D19BF80000E968022708701CE06CB9B8F1080F08D159460A6850460E30496845
:2057AC000260012741600FE00D260BE00B2609E00A2607E000944846434629465A4601F0C9
:2057CC00B0FA0646FF2F06D05046006818B1016809B1384688473046BDE8FE8F601A00204A
:2057EC002DE9F0410E46294990461C4606AF8C4672680878BB8851783F881278002502EB08
:20580C00012242F62321521A29D0521E052A18D9921F0CD0263A34D1072F30D8C7F10700F9
:20582C00984298BF83B2674407F1080121E0B84225DBC01B9842D8BF83B22380DCF8040053
:20584C000BE0F06804F052F880B2B84217DBC01B9842D8BF83B22380F06839180AE0082FAF
:20586C000DD8C7F10800984298BF83B207EB0C010F31238040461A4600F000F903E0072551
:20588C0001E025800A252846BDE8F081981500202DE9F84F0E46044604F0F8FA83462548DF
:2058AC000068EFF3118A80F31188D4F808904E4533D01E481E4D0768002E06D4AF69012070
:2058CC0000FA06F807EBC60702E04FF000087F19207D012817D1204604F080FA206C04F042
:2058EC00E9FA18B1E1686868884368602869844212BF381C6F613868214604F06BFA6868C8
:20590C0048EA00006860A660C4F80C802764002E44BF00206861012028818AF31188584610
:20592C0004F0A0FA4846BDE8F88FC046E8050000000100207CA50000F8B5264C2068EFF355
:20594C00118680F3118824491D4D0B680420B0FA80F043F00403281A1F3002780B60521CF2
:20596C00027086F311882068EFF3118380F311880A680820B0FA80F042F008022D1AE87FEF
:20598C000A60401CE87783F311880E20FFF734F80C480068C0F38150032814BF00200120F8
:2059AC0009490A4A088017683FB9094C402020600123D36100204860F8BD0120F8BDC04650
:2059CC00E8220020B43F00509C21002004800C402C500C407CA50000381D0020F0B5204836
:2059EC000127F84201D002F0C1F8204D204F214EBD4206D203CD0478A4003459401CA047DB
:205A0C00F6E71D48002800D08047164D164FBD4202D210CDA047FAE7F0BD03251BE04168C0
:205A2C0008300A1C2A400BD11A1C2A40AB4305D0046804300C600431043BF9D1131C05D005
:205A4C00047801300C700131013BF9D1021C2A4001D0A84304300368002BE0D17047C0465D
:205A6C00FFFFFFFF0000000000000000F8AB000080AC00008CAB000059C50110002A4AD0A5
:205A8C005FEA000C8B071CD1830722D1102A08D370B4103A78C978C0103AFBD270BC103228
:205AAC0038D0042A2CD3082A05D30C2A24BF08C908C008C908C008C908C092072AD0920F83
:205ACC0022E00B780370491C401C521E22D08B07F7D1C30714D18307D8D0121F12D308C97D
:205AEC0003801B0C4380001D121FF8D20AE008C903701B0A43701B0A83701B0AC370001D82
:205B0C00121FF4D2121D05D00B780370491C401C521EF9D1604670472DE9FE4F07460192ED
:205B2C000C9800919B4602902FB1081C03D0101C01D0029810B90220BDE8FE8F1B4801784A
:205B4C0000252C462CE0A00037F800A04FF6FF733E18534520D096F80280B8F1000F1BD0DF
:205B6C000198009A594603F0FDFE5FEA000913D05FEA580006D3029B504601214A4600F0D5
:205B8C0063FC0543B078800806D33088029B02214A4600F059FC054304480178641CE4B259
:205BAC00A142D0DC2846BDE8FE8FC046E4090020F0B5002124220823ADF1240D684604F0EF
:205BCC0041F91B4D012739466A468DF8187005F1140004F033F9174801684FF440708847FF
:205BEC00154C2068B0F1FF3F0FD10020134E206004E0896888472068401C2060810001EB7B
:205C0C00C001701871580029F3D1281D03F0CCFE2F7303F0E9FC0026FF21094A2860094C87
:205C2C001170267008B904F0D1F809B0F0BDC046683A002078000010F0220020DCA100005E
:205C4C00323B0020333B0020B0B50446A768ADF1280D5FBB0C2000F0BDFA071C1DD06846E1
:205C6C0000212422082304F0ADF8002306976A466168ADF810301848059304F09FF83860B4
:205C8C0070B90820ADF824000C25ADF8265009A802F044FF384602F0FDFF6FF0030018E0E6
:205CAC00E06878602069B860A7600AE003F067FC0546386804F0F6F82069B860284603F001
:205CCC008FFD3868616804F0A1F8386804F0E6F800200AB0B0BDC046FB9A000070B5054672
:205CEC0003F05CF843F6F424C2F200046668034602F0BAFF22699B1B4FF47A715943090C66
:205D0C00801A48BF404240F6B83249198A4216D3062814DAA268E068824210D8216871B158
:205D2C00801A44F24022C0F20F024243900C00EB1240814212D90846C82811D312E043F609
:205D4C00AC71C5F200014868400828BF4FF4FA600DD209687D2001F0FF014843C82801D2BA
:205D6C00C82070BDB0F57A6F88BF4FF47A6070BD38B5234C04F10C00211D00F043F80028F5
:205D8C00206008BF002033D01A4CA06818B103F085FB0020A0606068A0B904F12805284612
:205DAC0003F086FD1448A06314480023016884F82830CA6884F8343029469047606008B96D
:205DCC0004F004F82078401C2070AB208DF8000003F022FE6846012103F064F8002400B9E4
:205DEC00012403F011FE0CB101F020FA01F098FE38BDC046501F002040420F007CA10000E9
:205E0C00D42100202DE9F843204D884606464FF0FF3105F12400814604F018F8002000E035
:205E2C00401CB8F1000F0DD018F82010FF2909D02A688A4204D905EB8101096E0029EFD018
:205E4C0000261CE00024346074600127B4600EE005EB80000B787268066607FA03F01043DE
:205E6C0070600A680A49304602F0AEFF641CB8F1000F04D008EB84010878FF28E8D14846FA
:205E8C0003F0C8FF3046BDE8F883C04628380020007FC7672DE9FC410E46307A1D469046E9
:205EAC0008AF400928BF082038D23888002818BF0B2033D10846694603F04CF8012804D19D
:205ECC00002028800120BDE8FC81BDF800004AF601410024401A16D0401E0BD0401E1CBF9E
:205EEC002C800A2419D102202880F06800884146088012E005202880F068026841460A60A7
:205F0C000079087109E001F057F805480C3002782A80F1684046FFF7B1FD2046BDE8FC81A2
:205F2C001819002038B5042003F0E0F81A4C022818BF03281FD103200090164800214FF035
:205F4C0040521C2301F094F817480068EFF3118380F3118815480421B1FA81F1401AC17F65
:205F6C004A1E0129C27703D1206820F00400206083F3118838BD094D0A48094A296803685F
:205F8C006018B2FBF3F103F041FF2868201803F085FF38BD00A00C40381D002068A5000017
:205FAC00A086010080A500007CA50000E822002010B51A481A490078086820F0030040F089
:205FCC000100086001F0BAFF02F0FAFC0021154C154821600068C068014602208847134936
:205FEC00134A086820F0010008601068D4F8EC1FEFF3118480F311880E4B0F481A68042126
:20600C00B1FA81F1401A42F00402C17F1A60491CC17784F311884FF0FF3010BD363B002092
:20602C000440034040100940A00100108C2108407CA50000381D0020E82200202DE9F04187
:20604C00876846681D48006803F028FA38680024C0F810483968C1F80448D1F8200820F03A
:20606C001000C1F8200803F0F9FE154D8046287818B1042002F0E8F92C70404603F0EAFEB4
:20608C00387AFEF725FD06F1100003F093FE06F12C0003F08BFE307818B906F1480003F056
:2060AC0085FE06F1840003F04FFA03F0D7FE86F8984003F0CFFEBDE8F081C046083B00203D
:2060CC00343B002010B51F4C21B3C91E15D0481E37D1042003F0CEFB38B9207840F002004C
:2060EC00207003F09BFEE06027E0207800F0FD00207003F093FE20611FE0032003F0BAFB4D
:20610C00002807BF207800F0FB00207840F00400207012E0002003F0ADFB38B9207840F040
:20612C000100207003F07AFE606006E0207800F0FE00207003F072FEA0600348006803F092
:20614C0069FE10BD1822002028050020F8B505461E480068EFF3118780F311881C4C20681C
:20616C004FF0805640F080002060D6F88C014068014601208847D6F8B001006A0146142030
:20618C008847286906F5C675810C14BF010C04212868406A024601209047D6F88401006896
:2061AC0023210246002090472868C069014601208847206820F4C02040F4803020602068F8
:2061CC0040F00100206087F31188F8BD7CA5000000200940F8B5001D84B214F0030002D0D7
:2061EC00241A241DA4B203F0CAF91A4A102C014657691161C8BF9769388800221646C30B5C
:20620C00DD0319D126B984420ADD3A46012617E01388C3189BB29C42138011DC17461846A2
:20622C009FB1001B80B20428B4BF3C88385344F400443C803F1D08E080F40040002680B23F
:20624C00C71938880028DAD10027084603F0C8FA3846F8BD6C17002070B5FDF781FB1E49C3
:20626C0000220820103141F80C2F401E8A60FAD1164E14460B2006F180010A46401E22F8D7
:20628C000C4BFBD108200880114D8D60114DE823A5F8344B20462B8005F1E802726140F655
:2062AC004C211180FFF796FFB061756100F09AFA01F024FE02F014F801F0F4FF01F0D4FF25
:2062CC0001F0B4FF03F06EFD204670BD6C1700204D93000020230020701700202DE9F04149
:2062EC0045688768E86E06684468307888B1607903F04CFC012809D120684FF00008C0F807
:20630C000480301D03F056FD404630706079FEF7DFFBA86E03F0C2F83968486820F0020066
:20632C00486005F11C0003F045FD7879FEF7D0FB2878002418B905F1380003F037FD05F1D1
:20634C00900003F001F903F089FD85F8A44003F081FDBDE8F081002213460A46194671B503
:20636C0010F0030F0BD0002A82BF00F8011BB2F1010210F0030FF6D1002A08BF71BD11F006
:20638C00FF0141EA0121042A18D341EA0141082A0FD30E46102A08D30C460D46B2F10F0347
:2063AC0012F00F0272C0103BFCD812F0080F18BF42C012F0040F18BF40F8041B12F0020F25
:2063CC0018BF20F8021B12F0010F18BF017071BD2DE9F84380460878914608AF02281AD0E4
:2063EC001748184D4F68046810222946384602F0D9FE002610B904B3012008E005F110010C
:20640C003846102202F0CEFE70B9B4B1022041464A46A04711E048684278007842F6021631
:20642C0000EB0220864201D00A2606E038884A460090404600F075FC06463046BDE8F883EB
:20644C0080180020E4A000002DE9F0410E4615461C4680464FF6FF71ADF1200D06AA03F0B3
:20646C002DF8024605922AB300200090BDF81800FF270DF112032946019040460297A04773
:20648C00041C12D16889ADF81000700804D3404604A903F067F806E01D20009004A93B4692
:2064AC00404601F019FC041C05D004A81B2103F013F800E01524204608B0BDE8F081F8B56F
:2064CC000E46307A1D46144606AF400928BF08202FD23888002818BF0B202AD10846694605
:2064EC0002F038FD012803D1002028800120F8BDBDF800004AF681210027401A12D0401E76
:20650C000AD0401E1CBF2F800A2711D101202880F068007820700BE002202880F0680088DC
:20652C00208005E012222A80F1682046FFF7A6FA3846F8BD70B50646F088F4680B28A4F157
:20654C000C042CDAB0880B2829DA03F018F8154DF28891000C3501EBC20169184968E1B187
:20656C0003F03EF930792071B0796071307AA071F188880000EBC1002818F16840680830D0
:20658C0002F0B4FBF188880000EBC1002D186868406803F03FFC002070BD03F021F96FF0FD
:2065AC00020070BDE0170020F8B586687568164995F8593051F8232014491140144AA2F171
:2065CC0050073F684FF0010C43EA01040CFA03F1394218BF44F480041268614699401142DE
:2065EC0018BF44F4000495F8591002F003FC0A48084920430840814205D1696D0420087438
:20660C003046FEF791F8F8BD00100840007F077FD0200240000006800000F8FF38B51A4D65
:20662C00286878B3B9208DF8000003F0F5F96846012102F037FC03F0E7F90A2401F070FA03
:20664C00002818BFB4F10104F8D1104C2078401EC0B2207088B9606820B1016809688847E5
:20666C0000206060A06830B904F10C0004F11801FFF7C8FBA06000202070286802F00EFF36
:20668C000020286038BDC046D4210020501F0020FEB51A4C0546208C218B81420CDC618B54
:2066AC00814209DBA08B618C884205D1E08BA18C884208BF18271FD0052001F03FFD278B14
:2066CC000646A18B638BADF80270E08AADF806100B4AADF80000E78BADF8043011216846E7
:2066EC00ADF8087002F09EF9071C05D1A57304F1F000314601F01CFF3846FEBDE409002029
:20670C00B19C00002DE9FC4117460E4605464FF0020800F08BFD18BB02F0DAFB00BB05F0C6
:20672C00FF04C4F58074B44288BF341C8DF800808DF80350280C8DF80100280A8DF80200C0
:20674C0003F06AF96846042102F0ACFB361B651920B93846214602F0A5FB20B103F054F93B
:20676C000020BDE8FC8103F04FF9E719002ED0D10120BDE8FC81704738B50079184CA0B9A4
:20678C0002F0FDFE2178002904BF6FF00704051C13D0491EC9B2217029B903F021F86068E4
:2067AC0001F036FF18E0054613E002F0E8FE05462078FF2805D16FF00604284603F010F8E7
:2067CC000BE0401CC0B20128207002D1606801F03AFF284603F004F80024204638BDC04694
